:020000040800F2
:10280000280E0020912900081F580008D553000801
:102810001D580008152E00088D63000800000000F8
:10282000000000000000000000000000A55A0008A1
:102830003F2F0008000000008D580008915C000840
:10284000AB290008AB290008AB290008AB29000818
:10285000AB290008AB290008AB290008AB29000808
:10286000AB290008AB290008AB290008AB290008F8
:10287000AB290008E52E0008F12E0008FD2E000807
:10288000092F0008AB290008AB290008AB29000874
:10289000AB290008AB290008AB290008AB290008C8
:1028A000AB290008FD5C0008AB290008AB29000833
:1028B000095D0008AB290008AB290008AB29000816
:1028C000AB290008AB290008AB290008AB29000898
:1028D000AB2900086963000875630008816300087C
:1028E000AB290008AB290008AB29000800F002F86A
:1028F00000F03EF80AA090E8000C82448344AAF15C
:102900000107DA4501D100F033F8AFF2090EBAE859
:102910000F0013F0010F18BFFB1A43F00103184713
:10292000FC4000001C410000103A24BF78C878C168
:10293000FAD8520724BF30C830C144BF04680C60C5
:10294000704700000023002400250026103A28BF0D
:1029500078C1FBD8520728BF30C148BF0B60704711
:102960001FB59DE8030000F039F91FBD10B510BD7B
:1029700000F090F91146FFF7F3FF03F069FD00F056
:10298000AEF903B4FFF7F2FF03BC00F0DFF900007B
:102990000948804709480047FEE7FEE7FEE7FEE7F3
:1029A000FEE7FEE7FEE7FEE7FEE7FEE7044805492F
:1029B000054A064B70470000F95C0008ED28000846
:1029C00028080020280E0020280A0020280A0020BD
:1029D00070B5064600F0E6F8056806F10B0020F039
:1029E0000704B4429CBF002070BD2B466A68BAB190
:1029F0001068A04210D304F1080188423CBF50681F
:102A0000586007D35168101941601168091B0160B3
:102A100058601460101D70BD13465268002AE7D13B
:102A20002146284600F0C6F80028DED170BD70B5FA
:102A30000446051F00F0B6F80068002C14BF446877
:102A400070BD002C18BFAC423CBF20466468F8D370
:102A500001680A18AA4218BF456003D12A680546D2
:102A60001144016028684119A1421CBF6C6070BD0F
:102A70006168696021680844286070BDB2F1200374
:102A80000AD5C2F1200320FA02F001FA03F321FA79
:102A900002F140EA0300704721FA03F04FF0000111
:102AA000704740EA010310B59B070FD1042A0DD3EC
:102AB00010C808C9121F9C42F8D020BA19BA88421F
:102AC00001D9012010BD4FF0FF3010BD1AB1D3075E
:102AD00003D0521C07E0002010BD10F8013B11F894
:102AE000014B1B1B07D110F8013B11F8014B1B1BBD
:102AF00001D1921EF1D1184610BD02F0FF0343EA46
:102B0000032242EA024200F002B84FF00002042918
:102B1000C0F0128010F0030C00F01B80CCF1040C0C
:102B2000BCF1020F18BF00F8012BA8BF20F8022B40
:102B3000A1EB0C0100F00DB85FEAC17C24BF00F8E6
:102B4000012B00F8012B48BF00F8012B70474FF014
:102B5000000200B5134694469646203922BFA0E8ED
:102B60000C50A0E80C50B1F12001BFF4F7AF0907F9
:102B700028BFA0E80C5048BF0CC05DF804EB8900EA
:102B800028BF40F8042B08BF704748BF20F8022B2D
:102B900011F0804F18BF00F8012B70477047704745
:102BA0007047000000487047D0070020704770470A
:102BB0007047704738B504460A4600206946AFF3AF
:102BC0000080002808BF38BD02460099204600F06A
:102BD0003FF8012038BD012000F054B8F8B5AFF33C
:102BE0000080054600200C46102000BF0646A819AC
:102BF000A0420DD9324669460020AFF3008007009D
:102C000008BF00F03FF80098A04218BF0546C4195D
:102C1000FFF7C8FF05600746F01D20F007004619C2
:102C2000284600F00AF8B44208BFF8BDA21B31469E
:102C30003868BDE8F84000F00BB800210160C0E939
:102C4000011070471020704700487047C8070020E7
:102C5000034640688C46002818BF88423CBF0346A4
:102C60004068F8D318681844884207D00CF1030074
:102C700020F00700001D411A521A0146081D0A6083
:102C8000FFF7D5BE10B500F039F8BDE8104000F0F0
:102C90002FB870477546FFF7D7FFAE460500694667
:102CA000534620F00700854618B020B5FFF77EFE9A
:102CB000BDE820404FF000064FF000074FF000083D
:102CC0004FF0000B21F00701AC46ACE8C009ACE8BE
:102CD000C009ACE8C009ACE8C0098D46704710B522
:102CE0000446AFF300802046BDE81040FFF749BE20
:102CF000002801D000F02AB87047000010B5012864
:102D000005D0002103A000F027F8012010BD09A183
:102D1000F8E7000053494752544D454D3A204F754E
:102D200074206F662068656170206D656D6F7279C3
:102D3000000000003A2048656170206D656D6F727B
:102D40007920636F72727570746564000149182090
:102D5000ABBEFEE72600020070B505460C460A2011
:102D600000E06D1C00F011F835B128780028F8D18A
:102D700002E0641C00F009F814B120780028F8D1B2
:102D8000BDE870400A20AFF3008008B569468DF8B1
:102D900000000320ABBE08BD10B50C460A490978F7
:102DA00020290FD000210460C1810182818102F0BD
:102DB00013FB96220549204601F065FB03F038FB22
:102DC0000349886010BD0000050000201E0400209B
:102DD0004C0000200D4B10B55A780D4C4FF480512B
:102DE000302A0ED07AB140F63402186AB0FBF2F005
:102DF00000F029F828B100222046BDE8104000F07C
:102E0000CEBD0122F8E740F22622EEE704000020C2
:102E100000080140FEE730B5044600200246491E86
:102E20000EE0A35C5840002345000006C0105B1C68
:102E300085EA5070DBB2C0B2082BF5D3521CD2B277
:102E40008A42EEDB30BDC00701D000207047012070
:102E5000704700000F4910B54B7800EB8002102B33
:102E60000BD00BB1302B14D1888B401C8883888BFE
:102E7000B0EB420F0DD303F0B7FA8B8B5B1C8B8347
:102E80008B8B834205D30120C871087200204872E1
:102E9000EDE710BD04000020F0B5104C618B491C1B
:102EA00089B26183814218D300210D4A0E4600BFCA
:102EB00001EB410502EBC5035F784FB112F83550C5
:102EC00035B1DD880544ADB2DD801E2D00D35E70C6
:102ED000491CC9B21F29EBD36683F0BD0400002052
:102EE00078000020014800F005BA000064070020C7
:102EF000014800F0FFB90000DC060020014800F0A6
:102F0000F9B9000098060020014800F0F3B900006C
:102F10002007002030B590F840500124AC40C56B2C
:102F20006C60046863604368102B036803D0996089
:102F30000068C26030BD9A600068C16030BD7047F3
:102F400072B6FEE706490020C8610648016941F0F3
:102F500004010161016941F0400101617047000015
:102F6000A807002000200240064A0021D16106493E
:102F70000A6942F002020A614861086940F04000B3
:102F800008617047A807002000200240044B00227F
:102F9000DA61044A136943F0010313610180704749
:102FA000A80700200020024014480022C168CB0678
:102FB000134904D5CA6942F00202CA611022C368EB
:102FC0005B0705D5CB6943F00103CB6142F00402F6
:102FD000C369DB0707D0CB6943F00403CB61C16948
:102FE00021F00101C161A2F58071013901D0C260F7
:102FF0007047C16921F00101C161704700200240A2
:10300000A807002070B5054600F0CEFC0646114C1E
:1030100009E0681C07D025B100F0C6FC801BA8425F
:1030200001D9032070BDE068C007F2D1E0688006D6
:1030300001D52020E060E068C00605D4E069C00743
:1030400002D1E068400703D5FFF7AEFF012070BD55
:10305000002070BD0020024030B585B00C4605460A
:1030600000F008FB01200394CDE901050020009049
:1030700004A9684600F060FA044600F0B1FA05B011
:10308000204630BD2DE9F0412D4CA0782D4E002575
:10309000B71488B101223946304600F080FCE0893F
:1030A000401C80B2E0810A2806D30022394630460F
:1030B00000F075FCE581A570E07898B14FF40068E8
:1030C00001224146304600F06AFC208A401C80B252
:1030D00020820A2806D300224146304600F05FFCD9
:1030E0002582E5702079184E98B14FF400580122DE
:1030F0004146304600F053FC608A401C80B260823A
:10310000032806D300224146304600F048FC658281
:1031100025716079002811D001223946304600F02F
:103120003EFCA08A401C80B2A082032806D3002265
:103130003946304600F033FCA5826571BDE8F08168
:103140000400002000080140000C014010B50023DD
:10315000521C05E030F813405B1C21F8024BDBB237
:10316000B3EB520FF6D310BD0B22FFF7EFBF2DE9E3
:10317000F0411646804601270D4600F07BFA0024F8
:10318000761C0BE02A8808EB44010023012000F0A4
:1031900031FA641C3844C7B2E4B2AD1CB4EB560F2C
:1031A000F0D300F01DFA3846BDE8F0811FB50B22C0
:1031B00001A9FFF7DCFF04B010BD10B590F8211095
:1031C0000022022905D00421816380F820200120FB
:1031D00010BD01680B6823F00E030B6001680B68DB
:1031E00023F001030B6090F84030C46B012101FA19
:1031F00003F3636080F8211080F82020104610BD92
:1032000010B590F821100024022903D00421816315
:1032100001243DE001680A6822F00E020A6001689C
:103220000A6822F001020A601A4A0168914201D13B
:10323000012121E0174A1432914201D110211BE0F3
:10324000144A2832914201D1891515E0114A3C32C5
:10325000914201D189140FE00E4A5032914202D1BD
:103260004FF4803108E00B4A6432914202D14FF4AE
:10327000801101E04FF08071064A083A5160012147
:1032800080F82110002180F82010416B01B188479F
:10329000204610BD0800024010B528B301680A6836
:1032A00022F001020A600268002111600268516088
:1032B000026891600268D1600C4B026801241A44D4
:1032C0001423B2FBF3F29300094AC0E90F239C4098
:1032D00054608162C16201634163816380F821109F
:1032E00080F82010002010BD012010BDF8FFFDBFA8
:1032F000000002402DE9F05FC16B0C6801680B68AB
:10330000D0F840C0042202FA0CF2494DDFF824A1A3
:10331000494E4A4FDFF828B1DFF828E122422CD08D
:103320005A072AD50A68920603D40A6822F00402D2
:103330000A600168A94201D1042219E0514501D176
:10334000402215E0B14202D14FF4806210E0B94250
:1033500002D14FF480420BE0594502D14FF4802254
:1033600006E0714502D14FF4800201E04FF0806227
:103370002F4908394A60C16A3BE04FF0020808FA59
:103380000CF818EA040F4FF000094FF0010235D095
:103390005FEA837832D50B689B0605D40B6823F06F
:1033A0000A030B6080F821200168A94201D10222A2
:1033B00019E0514501D1202215E0B14202D14FF46C
:1033C000007210E0B94202D14FF400520BE05945AF
:1033D00002D14FF4003206E0714502D14FF40012E1
:1033E00001E04FF00072124908394A6080F82090DD
:1033F000816A00291AD0BDE8F05F0847082505FA60
:103400000CF5254212D01B0710D50B6823F00E03D4
:103410000B6090F84010C36B02FA01F159608263AF
:1034200080F8212080F82090016BE2E7BDE8F09F52
:10343000080002401C0002403000024044000240EC
:10344000580002406C00024030B528B308C8134948
:1034500014221944B1FBF2F18900C1631049816360
:10346000022141771A6843F6F0718A43D0E90014CB
:103470002143D0E902452C43214304692143446997
:1034800021438469214311431960002141630122D2
:1034900042770177084630BD012030BDF8FFFDBFFF
:1034A0000000024070B5044690F820000025012875
:1034B0000CD0012084F8200094F821600020012E17
:1034C00006D084F820000225284670BD022070BD79
:1034D000022684F82160A0632068066826F00106B1
:1034E00006602046FFF716FDE06A002820680168A4
:1034F00002D041F00E0106E021F0040101602068D5
:10350000016841F00A0101602068016841F0010191
:103510000160D9E770B5044600F046FA0546601C24
:1035200002D004480078044400F03EFA401BA04258
:10353000FAD370BD680000202DE9F0470546264803
:103540000F460126017E01290FD001218146017617
:103550002868DFF888804CF25034022808D0A24650
:103560002046FFF74FFDA8B131E00220BDE8F0870B
:103570002046FFF747FD08BB0120FFF7E3FC20468C
:10358000FFF740FDD8F81010064621F00401C8F8F6
:1035900010101CE04FF0FF303860AC6811E020469E
:1035A000FFF7E2FC5046FFF72DFDD8F8101006009B
:1035B00021F00201C8F8101001D03C6007E004F5CA
:1035C0008064D5E9020100EB8120A042E7D8002108
:1035D00089F818103046C9E7A807002000200240EB
:1035E0000348016941F0800101610020704700003B
:1035F000002002402DE9F05F07461C488846002461
:10360000017E15461E46012909D001218146017619
:103610004CF2503A5046FFF7F5FC18B122E0022078
:10362000BDE8F09F012F02D0022F00D00427D3461F
:10363000DFF83CA0220128463146FFF71FFA81B28D
:1036400008EB4400FFF7A2FC5846FFF7DBFCDAF872
:10365000102022F00102CAF8102018B9641CE4B24C
:10366000BC42E7D3002289F81820D9E7A807002038
:1036700000200240064900200A69120607D5054AC3
:103680004A60054A4A600969090600D50120704769
:103690000020024023016745AB89EFCD2DE9F043BF
:1036A00000233E4F0F2573E001229A400A406DD05F
:1036B00023F00304E619D6F808809C074FEA147C2F
:1036C00005FA0CF909EA0804DFF8D480404502D174
:1036D0004FF0000816E0DFF8CC80404502D14FF0F3
:1036E00001080FE0DFF8C080404502D14FF002082A
:1036F00008E0DFF8B880404502D14FF0030801E050
:103700004FF0040808FA0CF8A04522D1284CD4F850
:1037100000C02CEA020CC4F800C0241DD4F800C07C
:103720002CEA020CC4F800C0214C0C34D4F800C0C0
:103730002CEA020CC4F800C0241FD4F800C02CEA04
:10374000020CC4F800C0D6F808C02CEA090CC6F870
:1037500008C0FF2A01D8064601E000F104064FEA3E
:10376000830401D9A4F12004D6F800C005FA04F8B6
:103770002CEA080C4FF0040808FA04F84CEA080C8C
:10378000C6F800C0C46824EA0204C46003F101035F
:1037900031FA03F288D1BDE8F08300000000014057
:1037A00000080140000C01400010014000140140DD
:1037B000000401402DE9F84FDFF8B8910024A9F189
:1037C000040B23460F2709F1040AABF1040EC9E0EC
:1037D0000125A5402A40AA427DD1674ED1F804C0F8
:1037E000ACEB0608B44532D014DCBCF1030F3AD080
:1037F00009DCBCF1000F2AD0BCF1010F1CD0BCF1D8
:10380000020F31D11DE0BCF1110F17D0BCF1120F26
:103810002AD119E0B8F5881F19D006DCB8F5803F29
:1038200015D0B8F5801F1FD111E0B8F5001F0ED0DC
:10383000B8F5041F18D10AE0CB6815E0CB681B1D52
:1038400012E0CB6808330FE0CB680C330CE08B68D8
:103850002BB1012B4FF0080303D0456104E0042392
:1038600002E0056100E00023FF2A01D8064601E0DE
:1038700000F104064FEA840501D9A5F12005D6F828
:10388000008007FA05FC28EA0C0803FA05F548EA67
:103890000508C6F800804D68ED0062D5374DAE6969
:1038A00046F00106AE61AD6924F0030605F001059E
:1038B0000095334D06EB050CDCF80850A607360FD3
:1038C00007FA06F825EA0805DFF8B880404503D175
:1038D0004FF0000817E044E0DFF8AC80404502D12B
:1038E0004FF001080FE0DFF8A480404502D14FF00F
:1038F000020808E0DFF89880404502D14FF0030845
:1039000001E04FF0040808FA06F848EA0508CCF888
:1039100008804D68D9F80060ED024D4601D5164388
:1039200000E096432E604D68DAF80060AD0255461F
:1039300001D5164300E096432E604D68DBF8006029
:10394000AD035D4601D5164300E096432E604D68F9
:10395000DEF80060ED03754601D5164300E096439E
:103960002E60641C0D682A46E5407FF431AFBDE847
:10397000F88F000008040140000011100010024000
:103980000000014000080140000C0140001001400F
:10399000001401408068084000D0012070470AB13F
:1039A000016170470904FBE7014880687047000027
:1039B0006800002070B5040013D021684CF6CC409C
:1039C0000860216845F255500860D4E90001416063
:1039D0002168A0688860FFF7E7FF054641F23C36A2
:1039E0000DE0012070BD00BFFFF7DEFF401BB042BD
:1039F00005D92068C068800701D0032070BD206809
:103A0000C0688007F0D121684AF6AA20086000202B
:103A100070BD00684AF6AA210160002070470000CE
:103A20000248816802781144816070476800002074
:103A3000074810B5016841F010010160032000F053
:103A400085F80F2000F006F800F024F8002010BDE3
:103A50000020024070B50D4D04464FF47A7128786D
:103A6000B1FBF0F00A490968B1FBF0F000F0ECFAA4
:103A700048B9102C07D200222146501E00F046F80B
:103A800000206C6070BD012070BD00006800002047
:103A9000740000200C4808B5816941F00101816182
:103AA000816901F001010091C16941F08051C1615A
:103AB000C06900F0805000900448416821F0E06146
:103AC00041F00071416008BD00100240000001405B
:103AD00000280DDB00F01F02012191404009800009
:103AE00000F1E020C0F88011BFF34F8FBFF36F8F5C
:103AF0007047002809DB00F01F02012191404009B6
:103B0000800000F1E020C0F800117047F0B40E4BC7
:103B10001B680C46C3F30223C3F10705042D00D92B
:103B20000425191D072901D2002300E0DB1E012610
:103B300006FA05F1491E214099409E40761E164026
:103B40003143F0BC02F040BC0CED00E0064900F04F
:103B5000070208684FF6FF03184040EA0220034AB4
:103B600010430860704700000CED00E00000FA050B
:103B70002DE9F0470F46050061D0434E306800F054
:103B80000700B84209D2306820F00700384330609F
:103B9000306800F00700B84251D128683B4C8107DB
:103BA00012D5400703D5606840F4E0606060287873
:103BB000000703D5606840F4605060606068A968E1
:103BC00020F0F000084360602878C00728D06868BB
:103BD000012810D02168022810D0890700292EDA88
:103BE000616821F0030101436160FFF7DDFE80465B
:103BF00041F288390DE021688903EFE78901EDE79B
:103C0000FFF7D2FEA0EB0801494502D90320BDE829
:103C1000F0876068696800F00C00B0EB810FEFD1AD
:103C2000306800F00700B8420BD9306820F0070078
:103C300038433060306800F00700B84201D00120FE
:103C4000E5E72878400705D56068E96820F4E0607A
:103C5000084360602878000706D56068296920F469
:103C6000605040EAC100606000F038F86168084ABE
:103C7000C1F30311515CC84006490860064800685A
:103C8000FFF7E8FE0020C2E70020024000100240DB
:103C9000026A0008740000206C00002004480549F6
:103CA00000684968044AC1F30221515CC84070476A
:103CB0007400002000100240126A00080448054900
:103CC00000684968044AC1F3C221515CC84070478A
:103CD0007400002000100240126A00080E4A516869
:103CE0000E4801F00C03042B11D0082B0FD10C4807
:103CF000C1F38343C903C05C0AD55168084AC1F3C4
:103D00004041921E515C054A5043B0FBF1F07047B0
:103D100004494843704700000010024000127A0036
:103D2000F269000800093D002DE9F84F040070D049
:103D30002078C04DC00749D06868C0F381000128D1
:103D400007D06868C0F38100022809D16868C00301
:103D500006D52868800339D560680028E7D035E0AB
:103D60006068B0F5803F0BD010B1B0F5A02F11D036
:103D7000286820F480302860286820F4802002E041
:103D8000286840F480302860606890B1FFF70CFE2E
:103D900006460AE0286840F480202860F0E700BF6B
:103DA000FFF702FE801B642873D828688003F7D5CC
:103DB0000CE0FFF7F9FD064605E000BFFFF7F4FD54
:103DC000801B6428F0D828688003F7D420789A4EA6
:103DD00080074FF001094FF0000839D5686810F0EE
:103DE0000C0F07D06868C0F38100022809D1686809
:103DF000C00306D42868800714D52069012808D19B
:103E000010E02069B0B1C6F80090FFF7CDFD07467D
:103E100005E00AE1FFF7C8FDC01B0228C4D82868E6
:103E20008007F7D52868616920F0F80040EAC100F2
:103E300028600DE0C6F80080FFF7B6FD074604E0F5
:103E4000FFF7B2FDC01B022823D828688007F7D4EB
:103E5000207800072CD57948A169D9B1C0F8009025
:103E6000FFF7A2FD074604E0FFF79EFDC01B0228F6
:103E70000FD8686A8007F7D571484FF4FA51006887
:103E8000B0FBF1F0009000BF0098411E0091FAD203
:103E90000EE080E0C0F80080FFF786FD074604E0F2
:103EA000FFF782FDC01B022875D8686A8007F7D427
:103EB0002078400760D5E8690027C00008D4E86989
:103EC00040F08050E861E869012700F080500090E0
:103ED0005C480168C90513D40168834641F48071C8
:103EE0000160FFF761FD824606E000BFFFF75CFD61
:103EF000A0EB0A0064284ED8DBF80000C005F5D519
:103F0000E06801280AD008B1052813D0286A20F0FB
:103F100001002862286A20F0040002E0286A40F0CC
:103F200001002862E06841F2883B98B1FFF73CFD50
:103F300082460BE0286A40F004002862EEE700BFEA
:103F4000FFF732FDA0EB0A0159455AD8286A8007CD
:103F5000F6D50CE0FFF728FD824605E0FFF724FDCB
:103F6000A0EB0A0159454CD8286A8007F6D41FB146
:103F7000E86920F08050E861E06988B36968C1F3BE
:103F80008101022944D00228C6F8608004D0FFF7DE
:103F90000BFD044638E034E0FFF706FD074604E079
:103FA000FFF702FDC01B02282BD828688001F7D438
:103FB000206AB0F5803F05D16868A16820F4003020
:103FC00008436860D4E908010843696821F4741162
:103FD00008436860C6F86090FFF7E6FC044606E018
:103FE00025E000BFFFF7E0FC001B022809D8286885
:103FF0008001F7D51BE000BFFFF7D6FC001B0228AD
:1040000002D90320BDE8F88F28688001F4D40EE0BF
:104010000128F7D06868226A00F48031914204D107
:10402000616A00F47010884201D00120EAE70020A4
:10403000E8E70000001002400000424280044242D3
:10404000740000200070004010B5401EB0F1807F69
:1040500001D3012010BD4FF0E02460610F216017F3
:1040600002F0B2F90020A06107202061002010BDFD
:104070007047704770B590F83C20012A26D0012483
:1040800080F83C40022280F83D2003685A689D6811
:1040900022F070060A6832435A600D4B02689A4259
:1040A00008D0B2F1804F05D00A4B9A4202D00A4B99
:1040B0009A4204D1496825F080031943916080F841
:1040C0003D40002180F83C10084670BD022070BDC4
:1040D000002C0140000400400008004010B504001E
:1040E00003D094F83D0010B107E0012010BD00207E
:1040F00084F83C00204600F01FF8022084F83D00C0
:10410000211D206801F006FE012084F8460084F895
:104110003E0084F83F0084F8400084F8410084F8B1
:10412000420084F8430084F8440084F8450084F891
:104130003D00002010BD000008B5154A0168154873
:1041400091420ED1816941F4006181618069002250
:1041500000F40060009001211920FFF7D7FC19201E
:1041600010E0B1F1804F11D1C16941F00101C1618D
:10417000C069002200F00100009011461C20FFF7EA
:10418000C5FC1C20BDE80840FFF7B3BC08BD00001B
:10419000002C01400010024090F83D10012901D090
:1041A00001207047022180F83D100168CA6842F082
:1041B0000102CA6000680B49884208D0B0F1804F04
:1041C00005D00949884202D00849884204D1816853
:1041D00001F00701062903D0016841F001010160E7
:1041E00000207047002C01400004004000080040FF
:1041F00070B5044690F83C000025012817D0012630
:1042000084F83C60022084F83D002068826822F037
:10421000770222F47F4282600868502838D00DDC93
:1042200020284FD005DC90B3102811D14AE002209D
:1042300070BD302846D040280AD13BE060282FD0FE
:1042400070280DD0B0F5805F03D0B0F5005F12D0BC
:10425000012584F83D60002084F83C00284670BDAC
:10426000CB68D1E90121206801F090FD20688168C8
:1042700041F0770109E0CB68D1E90121206801F024
:1042800085FD2068816841F480418160E1E719E0A3
:10429000CA684968206801F08BFD5021206806E05B
:1042A000CA684968206801F094FD6021206801F027
:1042B00077FDCEE7CA684968206801F079FD4021A2
:1042C0002068F4E7226801461046F0E770472DE9C0
:1042D000F04104460068C66805694FF00007A90769
:1042E00013D5B10711D5F91E01610120207720688F
:1042F00080698007204602D0FFF7E8FF04E000F065
:104300007EF8204600F07CF82777680716D57007FE
:1043100014D521686FF0040008610220207720681E
:10432000806910F4407F204602D0FFF7CFFF04E001
:1043300000F065F8204600F063F82777280715D5C8
:10434000300713D521686FF008000861042020773A
:104350002068C0698007204602D0FFF7B7FF04E05D
:1043600000F04DF8204600F04BF82777E80616D508
:10437000F00614D521686FF010000861082020773E
:104380002068C06910F4407F204602D0FFF79EFFEE
:1043900004E000F034F8204600F032F82777E80710
:1043A00008D0F00706D021686FF0010008612046B0
:1043B00000F028F8280608D5300606D521686FF0E9
:1043C000800008612046FFF753FE680608D5700696
:1043D00006D521686FF040000861204600F052F8D1
:1043E000A8060AD5B00608D521686FF0200008613C
:1043F0002046BDE8F041FFF73CBEBDE8F0817047C4
:104400007047000070B51C490546006809681B4CE0
:1044100088420ED1606A401C6062E08A401CE082E3
:10442000206A401C2062FEF72DFE00F0DBFE00F04B
:1044300085FF13492868096888421BD1A07980B993
:10444000208B401C80B22083792801D1002020835A
:10445000208B0921B0FBF1F201FB120008B9012009
:10446000A0710520FEF718FD3C20FEF7F3FCE08B61
:10447000401CE08370BD00003005002004000020D7
:1044800078050020704738B5044690F8420020288F
:1044900001D0022038BD51B14AB101202063002073
:1044A0006063204601F0C4FE216B012901D0012088
:1044B00038BD21680A684968009121680C3151E8CB
:1044C000002F42F0100241E80023002BF5D138BD47
:1044D0002DE9F0410D460646006818490127184CA1
:1044E000884213D1E088401CE08001F037FA00F0E8
:1044F00055FF207800B927701248124996220068AB
:10450000AA31FFF7C0FF01F093FFA0600E483168A9
:104510000068026891420FD10C49097830290BD10B
:10452000217919B9022D01D92771E570BDE8F04153
:1045300032220749FFF7A7BFBDE8F08100380140EC
:104540004C000020740300204400002005000020DF
:10455000B40400207047000070B5044620680C3099
:1045600050E8001F21F4907140E80012002AF5D1B4
:104570002068143050E8001F21F0010140E80012CB
:10458000002AF5D1206B012809D120680C3050E8B1
:10459000001F21F0100140E80012002AF5D1206828
:1045A00040694FF0200241064FF0000015D5216808
:1045B000143151E8003F23F0400341E80035002D5D
:1045C000F5D1E16B49B109484863E06BFEF718FE8D
:1045D00050B1E06B416B884706E0E08584F84220EB
:1045E00020632046FFF7B6FF002070BDEB5F000898
:1045F00010B5040015D0242084F841002068C1685B
:1046000021F40051C160204600F076F9002060647A
:1046100084F8410084F8420044F8300F6060207450
:1046200010BD012010BD7047F8B501680446086848
:10463000CA684B6910F00F0F4FF0000559D003F016
:10464000010602F49077374365D0C10705D0D10544
:1046500003D5616C41F001016164410705D5D907BB
:1046600003D0616C41F002016164810705D5D9076F
:1046700003D0616C41F004016164010707D502F0C9
:104680002001314303D0616C41F008016164616C29
:1046900000293AD0800604D5900602D5204601F0C4
:1046A0000AFD20684069616CC0F38010090700D4DE
:1046B00060B3204601F0CAFC20684069400621D55D
:1046C0002068143050E8001F21F0400140E800123B
:1046D000002AF5D1E06BA8B16D494163E06BFEF7AC
:1046E0008FFD002811D0E06B416B01B0BDE8F040B8
:1046F000084783060FD593060DD52046BDE8F84040
:1047000001F0D9BC2046FFF78EFFF8BD2046FFF729
:104710008AFF6564F8BD266B2023012E7CD1C60676
:104720007AD5D60678D508684868009048694FF071
:104730000206400640D5E16B086840680004000CA2
:10474000E8D0A28D8242E5D9E085886920282DD065
:1047500020680C3050E8001F21F4807140E80012FE
:10476000002AF5D12068143050E8001F21F0010123
:1047700040E80012002AF5D12068143050E8001FEC
:1047800021F0400140E80012002AF5D184F84230BF
:10479000256320680C3050E8001F21F0100140E82C
:1047A0000012002AF5D1E06BFEF707FD6663A08DCD
:1047B000E18D401A81B22AE0A08DE18D401A81B2CC
:1047C000E08D0028A6D00029A4D022680C3252E83F
:1047D000000F20F4907042E80007002FF5D1206808
:1047E000143050E8002F22F0010240E80027002F8B
:1047F000F5D184F84230256320680C3050E8002F52
:1048000022F0100240E80023002BF5D16663204619
:10481000FFF75EFEF8BDFFE705062BD5150629D587
:1048200094F841002128F5D1A068B0F5805F01D14E
:104830002069B0B1206A411C21622168007848607B
:10484000E08C401E0004000CE084E3D12068C168C5
:1048500021F08001C1602068C16841F04001C16061
:10486000D8E7206A0088C0F308004860206A801CEE
:104870002062E5E74006CDD55006CBD5CA68204674
:1048800022F04002CA6084F8413000F025FAC1E706
:10489000ED5E000870B5040004D094F841000025D6
:1048A00010B106E0012070BD84F84050204600F0B1
:1048B0006DF8242084F841002068C16821F400517B
:1048C000C160204601F058FC2068016921F4904144
:1048D00001612068416921F02A0141612068C168B5
:1048E00041F40051C1606564202084F8410084F8DF
:1048F00042006563002070BD10B5044600681D4B82
:104900001D491E4A984210D1886920F48040886170
:104910004FF4C0611046FEF7C1FEE06BFEF7BCFC31
:10492000A06BFEF7B9FC25201FE0154B98420CD177
:10493000C86920F40030C8610C211046FEF7AEFEB5
:10494000E06BFEF7A9FC26200FE00E4A904210D142
:10495000C86920F48020C8614FF440610A48FEF71E
:104960009DFEE06BFEF798FC2720BDE81040FFF7A6
:10497000AFB810BD003801400010024000080140EF
:104980000044004000480040000C01402DE9F04187
:1049900086B0002500950195029503950446DFF841
:1049A000ACC103686A48022103226A4E80274FF493
:1049B000806863454BD1836943F480438361836995
:1049C00003F480430493836943F0040383618069A3
:1049D000039200F0040004900802CDE9000169464A
:1049E0003046FEF7E7FECDE9008569463046029580
:1049F000FEF7E0FE594E5848C6E90005C6E90257E1
:104A0000356180147561C6E906503046FEF71CFD1D
:104A100008B1FEF795FAE66374624F48504E1438B9
:104A200001C61020A1C64E4846F810597561B561FF
:104A3000F561FEF709FD08B1FEF782FAA6630022D0
:104A4000022125207462FFF761F825203CE0DFF8A1
:104A500014C163453DD1C36943F40033C361C369E5
:104A600003F400330493836943F004038361806992
:104A7000039200F0040004900420CDE9000169468F
:104A80003046FEF797FE0820CDE90005694630461E
:104A90000295FEF78FFE3048334E1430C6E900050C
:104AA000C6E9025735617561B5613046F561FEF7BB
:104AB000CBFC08B1FEF744FAE6630022114626203B
:104AC0007462FFF723F82620FFF713F806B0BDE85D
:104AD000F081264EB342F9D1C36943F48023C36108
:104AE000C36903F480230493836943F0080383615B
:104AF0008069CDE9008100F00800CDE903201C4E5B
:104B000069463046FEF756FEF014CDE900056946C9
:104B100030460295FEF74EFE0F48164E2838C6E97D
:104B20000005C6E9025735617561B5613046F5612A
:104B3000FEF78AFC08B1FEF703FAE663002211468D
:104B400027207462FEF7E2FF2720BDE7003801400E
:104B50000010024000080140580002409806002062
:104B6000DC060020004400402007002000480040F0
:104B7000000C01406407002090F84230202B01D047
:104B80000220704721B11AB10023036301F098BBE2
:104B900001207047074910B5096800680968884214
:104BA00007D1054800F074FEBDE81040024800F04F
:104BB0007FBB10BD340000204400002070472DE969
:104BC000F843044690F84100984616460D462028C2
:104BD00002D00220BDE8F88385B17EB10020606478
:104BE000212084F84100FEF7DFFEA6848146E6849A
:104BF000A0682027B0F5805F02D003E00120E9E73C
:104C0000206910B12E4600250EE000260CE0802120
:104C1000204601F070FBA8B9C6B116F8010B216857
:104C20004860E08C401EE084E08C4B464FF0000270
:104C3000CDF800800028EAD14FF04001204601F075
:104C40005AFB40B184F841700320C3E735F8020BEA
:104C5000C0F30800E3E784F841700020BAE70000E1
:104C600070B5044690F84100202801D0022070BDA4
:104C700049B342B32162A284E2840020606421230C
:104C800084F84130A56B114BAB62A56B104BEB6206
:104C9000A56B104B2B63A36B5863256813462A1D25
:104CA000A06BFEF7FFFB21686FF0400008602068F2
:104CB000143050E8001F41F0800140E80012002A43
:104CC000F5D1002070BD012070BD0000016000081A
:104CD00043600008FD5E0008704770472DE9F04F03
:104CE000FB4889B0017800296FD000248346047006
:104CF000F84DF94F2878397800F00F00884233D109
:104D00006E7828463146FEF786F8A919009111F809
:104D1000011C884228D1F14901200870F049002087
:104D200008802878DFF8BC8300F0F000DFF8B8A333
:104D3000102820D0A5F1AA09A5F19604202845D075
:104D4000302862D0B0287CD0C0287BD0D0287AD040
:104D5000E0283AD100F080FDF61EF2B28BF8052073
:104D6000002004F5AF71D8E109B09621BDE8F04FFD
:104D7000D848FDF7CABE002188F8001000F06CFD8D
:104D8000A8781F2804D309B0BDE8F04F00F048BD53
:104D9000D64C207002206070A520A0700020291839
:104DA000CA782118401CC0B2CA700F28F7D3A620B9
:104DB000A0741421CD48FEF72EF8E0744FF0FF33B5
:104DC0001422CA49DAF80000AEE1A6E000F016FBB2
:104DD000102088F80000F61E0020F1B20122C44B1A
:104DE00007E02E18401CB678C0B206EB460603F862
:104DF00036208842F5D3387800F00F0040F02000CC
:104E0000207004206070022013E000F0F7FA98F898
:104E1000000028B1042E50D90220B31EAA464AE051
:104E2000387800F00F0040F07000207004206070AF
:104E30000720A070A74804219638FDF7ECFFE0702A
:104E400002E06DE0ADE011E14FF0FF330422D9F84C
:104E5000000098E01AF8005005F03F021F2A28D2FF
:104E60000AEB00014FEA951C4D78A14902EB42087C
:104E700001EBC80191F80380E04501D081F803C03F
:104E800091F802C0AC4500D08D7022544D780022BC
:104E900005B90122251891F805C0920042EA4C029A
:104EA00091F804C04FF0000842EA0C026A7081F8E1
:104EB0000580801CC0B29842CCDB00988D4A10F867
:104EC000020C810911708C4AC0F3011111708B4AD8
:104ED000C0F3810111708A4900F00300087038782E
:104EE00000F00F0040F030002070701EC1B2794811
:104EF00061709638FDF78FFFA11901F8020C754912
:104F000062789639D9F80000FFF7AAFE01205C46C6
:104F10008BF8020001F08CFA206109B0BDE8F08F37
:104F200000F06CFA77497848FEF71EF938780F21BF
:104F300000F00F0040F0B00020706170A878A07001
:104F40002220E0707148007820716E48827862718A
:104F5000C278A2718288130AE3712272D0F8062007
:104F6000130E6372130CA372130AE3722273807A16
:104F7000607358489638FDF74EFFA0736278D9F8F1
:104F800000004FF0FF3353499639FFF718FE5148A0
:104F900096219638FDF7DBFD09B0BDE8F04F00F033
:104FA0001BBA00F02BFADFF8608156494046FEF745
:104FB000DBF8544E01213068009070680190308910
:104FC000ADF80800B07A8DF80A0011203070404624
:104FD000FEF742F831680391726804923089ADF8A7
:104FE0001400B07A8DF816004046059BFEF7DEF8F7
:104FF0000120FEF78FFA06A94046FEF7B5F80B220E
:1050000006A93046FDF74DFD70B34E2601214046FE
:10501000FEF722F8C820401E10F0FF00FBD19DE8EB
:105020000E004046FEF7C2F83878052100F00F0068
:1050300040F0C00020706170A878A0702548E6702C
:105040009638FDF7E8FE2071224962784FF0FF3371
:105050009639D9F80000FFF7B2FDC820401E10F0C5
:10506000FF00FBD101F0D2F95926DDE700F0C6F9C7
:105070005546DAF80000FFF76FFA164932229631EA
:105080002868FFF700FA3878052100F00F0040F09B
:10509000D000207061700D20A0705920E0700D4884
:1050A0009638FDF7B8FE20710A4962784FF0FF3359
:1050B0009639D9F80000FFF782FD06489621963808
:1050C000FDF745FD00F088F9302188F8001024E74D
:1050D0004C0000201E0400200400002007000020D7
:1050E0002000002005000020440000206003002074
:1050F000780000200B0000200C0000200D00002094
:105100000E0000201805002000FC00080000002010
:105110002B189B780B54401CC0B29042F8D34FF030
:10512000FF330349DAF80000FFF749FD2BE60000E2
:10513000E604002070B5254C2079002845D00020D9
:105140002071E1782248FDF766FE214EE178314476
:1051500011F8011C814238D11E49012008701E49F6
:10516000087000F04BF9E078C01CC4B22046FDF78F
:105170002FFC05461948007800F00F0040F0E000D1
:1051800028706C70002004E0315C2A18401C91707B
:10519000C0B2A042F8D321462846FDF73CFE2919AB
:1051A0004FF0FF3301F8010C0D48224629460068F4
:1051B000FFF705FD32210648FDF7C9FC00F00CF9A8
:1051C0002846BDE87040FDF732BC70BD4C000020A1
:1051D000B404002008000020090000200400002082
:1051E000740300202DE9F0412F4C206A4FF4167112
:1051F000B0FBF1F0FDF727FE0646206A4FF49671EA
:10520000B0FBF1F0FDF71FFE0546E079274F4FF4A4
:10521000807148B1E079012808D0E079022815D0E2
:10522000E079032815D005E0002200E0012238468D
:10523000FEF7B5FB207A78B1207A01280ED0207ACB
:1052400002281DD0207A03281DD00CE0002EEDD1BD
:10525000EAE7002DEAD1E7E7002200E00122802101
:105260003846FEF79CFB607A80B1607A01280FD047
:10527000607A022813D0607A032813D145B905E07B
:10528000002EEBD1E8E7002DE8D1E5E7002200E0B1
:1052900001223846BDE8F0414021FEF780BB002ED8
:1052A000F6D1F3E7BDE8F08104000020000C0140D6
:1052B00030B4017901292CD1002303711648174A13
:1052C0000068904201D1164803E0164A904201D18D
:1052D000154801701548427802F03F0000EB400588
:1052E0001348D40900EBC5005206047106D5114AD3
:1052F00041711278202A01D10F4A1170C268521CE4
:10530000C260C38041700D2230BC05210748FDF703
:10531000F4BB30BC704700003400002008060020B9
:105320000800002050060020090000203E00002058
:10533000780000200500002011000020154910B55C
:10534000086A4FF41672B0FBF2F0FDF77CFD0246DE
:10535000086A4FF49673B0FBF3F0FDF774FD8C7A96
:105360000D4B4CB18C7A012C08D08C7A022C0CD0CD
:10537000897A03290CD108B9002200E00122BDE896
:10538000104020211846FEF70ABB002AF6D1F3E7A9
:1053900010BD000004000020000C014010B50A4CB4
:1053A00020785F280ED1607805280BD10321204694
:1053B000FDF731FDA178814204D104490020088025
:1053C0000349086010BD00001E0400201C000020DE
:1053D00024000020FEE7000070B5074D4FF48074F4
:1053E000002221462846FEF7DAFA21462846BDE883
:1053F00070400022FEF7D3BA0008014070B50122C8
:10540000064D140221462846FEF7C9FA21462846D1
:10541000BDE870400122FEF7C2BA0000000801405A
:105420002DE9F04385B000243F4800940194029494
:105430000394816941F010018161816901F01001DB
:105440000491816941F020018161816901F02001AD
:105450000491816941F004018161816901F00401D5
:105460000491816941F00801816180692F4F00F04A
:1054700008004FF400550490002229463846FEF7F4
:105480008EFADFF8AC8000224FF2E0114046FEF7C2
:1054900086FADFF8A09000224FF4C8514846FEF784
:1054A0007EFA0095022601250396CDE9015469464E
:1054B0003846FEF77FF9F0208DE83100694648460E
:1054C000FEF778F907208DE8310069464046FEF77F
:1054D00071F943F2E010CDE90005CDE902466946D5
:1054E0004046FEF767F94FF440400327CDE9000539
:1054F000CDE9024769464046FEF75CF92802CDE94E
:105500000005CDE9024769464846FEF753F9F8021F
:10551000CDE90005CDE9024669464846FEF74AF95D
:1055200005B0BDE8F083000000100240001001400B
:10553000000C01400008014010B586B00024174857
:105540000094019402940394049413490594016017
:105550004721C0E9011440F2E731C0E90314446176
:105560008461FEF7BBFD08B172B6FEE74FF48050D0
:10557000009069460948FEF73BFE08B172B6FEE7A7
:10558000049404A905480594FEF774FD002801D091
:1055900072B6FEE706B010BD002C014030050020B9
:1055A00010B586B000241748009401940294039427
:1055B00004944FF080410594016041F61F41C0E919
:1055C000011442F20F71C0E903148461FEF786FDF5
:1055D00008B172B6FEE74FF4805000906946094862
:1055E000FEF706FE08B172B6FEE7049404A905486A
:1055F0000594FEF73FFD002801D072B6FEE706B025
:1056000010BD0000780500202DE9F047674E4021CD
:105610003046FEF7BFF9A0B30020654C217841EA7F
:105620000010207080213046FEF7B4F950B30020FE
:105630002178604D41EAC000207001212846FEF724
:10564000A9F920B30020217841EA800020700221CE
:105650002846FEF79FF9E0B10020217841EA40009A
:10566000207004212846FEF795F9A0B1002021788A
:10567000B1460843207020213046FEF78BF960B117
:1056800062E000E001E00120C7E70120D0E701204F
:10569000D9E70120E1E70120E9E7202060704FF41D
:1056A0009678002240212846FEF779F900228021D1
:1056B0002846FEF774F94FF48077002239462846D1
:1056C000FEF76DF940F6B830FDF724FF03260122FE
:1056D00040212846FEF763F94046FDF71BFF0022F4
:1056E00040212846FEF75BF9012280212846FEF77B
:1056F00056F94046FDF70EFF002280212846FEF7AE
:105700004EF9012239462846FEF749F94046FDF791
:1057100001FF002239462846FEF741F94046FDF7D1
:10572000F9FE761E16F0FF06D1D10122402128464F
:10573000FEF735F9012280212846FEF730F90122D3
:1057400039462846FEF72BF910214846FEF722F984
:10575000194E1A4F4FF4E1384FF00102A0B1510336
:105760002846FEF71CF9C4E90C763046FEF740FFE8
:105770003046C6F80480FFF78DF8012291032846D1
:10578000BDE8F047FEF70BB94FF480512846FEF70D
:1057900006F9C4E90C670948FEF72AFF0748C7F86D
:1057A0000480FFF777F80122D103E8E70008014001
:1057B00004000020000C01405006002008060020D4
:1057C00070B5FFF70FFDFFF7B9FDFFF787FA00F09F
:1057D00015F9114C0025607830B1102808D0202828
:1057E00009D0302811D109E0A07970B1A5710CE081
:1057F00000F0E6F909E000F0FFFA06E0FFF79AFC96
:10580000E571032060720220207200F0C1FDBDE846
:10581000704000F023B9000004000020FEE7FEE71E
:1058200009480A4A01680A48914203D100224FF40C
:10583000004105E0074A914204D100224FF4804123
:10584000FEF7ADB8704700003400002008060020C5
:10585000000C0140500600200848094A0168094828
:10586000914202D10122D10304E0074A914203D1BF
:1058700001229103FEF793B8704700003400002026
:1058800008060020000C0140500600207047000070
:105890002DE9F0410446407900270126234D0628D2
:1058A00024D2DFE800F0030F13182A2EA079FE2877
:1058B00002D0FD281AD101E0667101E00421617176
:1058C000287013E0A0796870022002E0A079A87027
:1058D000032060710AE0A079E87004211348FDF705
:1058E0009AFAE978814200D1267167710122A11DDF
:1058F0002068BDE8F041FFF73FB9A0796870052046
:10590000E7E7A079A87003210848FDF784FAA97891
:105910008142EAD1FFF772FD054968788870054831
:1059200000782028E1D004480670DEE73E00002021
:1059300088030020050000204D00002010B5054C14
:10594000E18B814204D30448FEF763F80020E08332
:1059500010BD0000040000202405002070B5234C79
:10596000207800F0F00160293ED1214E00F00F00B8
:105970003178884205D02046BDE870409621FDF779
:10598000C4B8657819482946FDF745FA611911F838
:10599000011C884228D1174901200870FFF72EFD0D
:1059A00015490020114C08703078963C00F00F002B
:1059B00040F060002070042060700620A070042178
:1059C0002046FDF728FAE070A4F114004FF0FF33F1
:1059D000006804222146FFF7F2F81420401E10F060
:1059E000FF00FBD100F012FD70BD00001E0400207E
:1059F00004000020070000200500002010B5144C12
:105A00006078002823D0FFF7F9FC0020607011486F
:105A1000114C007800F00F0040F0100020700420BE
:105A2000607001462046FDF7F6F9E070A4F114001D
:105A30004FF0FF33006804222146FFF7C0F896219B
:105A40002046FDF784F8BDE81040FFF7C5BC10BD47
:105A50004C00002004000020880300200D4810B5F1
:105A60000078202814D000F0E3FC0B4CA168401A09
:105A70000A49E06088420BD3FFF7AEFC08480849AA
:105A800096220068AA31FEF7FEFC00F0D1FCA0606F
:105A900010BD0000050000204C000020404B4C00D1
:105AA00074030020704700002DE9FC473F4D404C37
:105AB0001F204FF00009217801EB410215F8322038
:105AC00042B1FFF7C9FEFFF7C7FE3A480078202829
:105AD0000CD017E0491CC9B221701F2901D184F8EC
:105AE0000090401E10F0FF00E5D155E032480068FC
:105AF0004FF47A71B0FBF1F0217801EB410105EB35
:105B0000C10188702678A84606EB460105EBC10561
:105B1000D5E90207C11B296100F08AFE824638469A
:105B200000F086FE254900F097FE514600F0BEFDCC
:105B300068616078401CC0B26070072801D1012103
:105B400061708DF80060E978607801F01F0141EA2A
:105B500040108DF80100A97830448DF802100844F7
:105B60008DF80300474605216846FDF754F98DF886
:105B700004000F484FF0FF330830052200686946E3
:105B8000FFF71DF8FFF74CFE207800EB400007EB15
:105B9000C0008168491C81602078401CC0B2207020
:105BA0001F2801D184F80090BDE8FC877800002010
:105BB0003C00002005000020280000200000C84212
:105BC00038B50A4C0025A07948B1FFF745FE08A07A
:105BD00000680090684600F00DF8A57138BDE08AB5
:105BE0000F28FBD3FFF760FFE58238BD04000020DB
:105BF000EFAE000010B50446FFF72EFE05484FF04B
:105C0000FF33022200682146FEF7D9FFBDE81040AD
:105C1000FFF706BE4400002070B51A490446002074
:105C20000D78194B02460126202D00EB400126D0AD
:105C300003F8312000EB400103EBC101401CCA70A6
:105C40008A700A714A714E70CA808A60CA600A619D
:105C5000C0B24A611F28E7D30C4DA5F108006A7154
:105C6000AA712A712C60C0F802208271FFF7D8FD5A
:105C70000122A91D2046BDE87040FEF77DBF03F854
:105C80003160D7E7050000207800002044000020A4
:105C9000FDF7C6BE30B58FB028216846FCF757FF28
:105CA00014210AA8FCF753FF0920012100904FF4AA
:105CB0008030002404910691CDE901040225CDE94C
:105CC00007504FF4E01009906846FEF72DF808B130
:105CD00072B6FEE70F20CDE90A054FF48060CDE9EA
:105CE0000C4002210AA80E94FDF742FF002801D0C3
:105CF00072B6FEE70FB030BD704700000148FEF7F6
:105D0000E6BA0000300500200148FEF7E0BA0000C6
:105D100078050020F0B50268194B1A4C1A4D4FF067
:105D20008047984205D0B84203D0A04201D0A84293
:105D300003D122F070064A683243984205D0B84237
:105D400003D0A04201D0A84203D122F44074CA6813
:105D500022434C6922F08002224302608A68C262B8
:105D60000A688262984201D1096901630121416197
:105D70000169C90703D0016921F001010161F0BD8A
:105D8000002C0140000400400008004010B5846869
:105D900042EA032224F47F440A432243826010BD76
:105DA000826822F070020A4342F007018160704766
:105DB00010B5036A046A24F001040462846924F0C3
:105DC000F00444EA021423F00A020A4384610262E6
:105DD00010BD10B5036A046A24F0100404628469DB
:105DE00023F0A00324F4704444EA023243EA011190
:105DF0008261016210BD00002DE9F041384C01279D
:105E00000025E07A18B3012868D100BFFFF7D8FE5B
:105E100000F00EFBA16A334E401A4CF25031E062A2
:105E200088423ED3002225735FF0010000EB400161
:105E300006EBC101401C0979C0B21144CAB21F2847
:105E4000F4D329484FF4006152B127730AE000F0FF
:105E5000EFFAA062A572E57125726772E772D5E765
:105E60002A0007D00122FDF79AFD657202202072F8
:105E7000A07205E00022FDF792FD67722572A572FF
:105E80005FF0010000EB400106EBC1014978A9B1C8
:105E9000401CC0B20E28F5D384F8075000F0C8FAB1
:105EA000A062607B012819D15FF0000000EB400187
:105EB00006EBC1014A79012A02D00AE0E771EDE759
:105EC000CA7812B1012A02D002E0CF7000E0CD7092
:105ED0004D71401CC0B21F28E8D36573BDE8F08146
:105EE00004000020780000200008014010B5406A3E
:105EF0000021C185C184FEF796FB10BD70B5446AD0
:105F00002068406994F84110C0F3C0100025212991
:105F100004D118B1E584204600F0BFF8206840693C
:105F200094F84210C0F38010222904D118B1E585FD
:105F3000204600F08BF8606C40F010006064204652
:105F4000FEF771FB70BD10B50146406A096809682B
:105F50004FF0000289062ED4C28501680C3151E849
:105F6000003F23F4807341E80034002CF5D1016830
:105F7000143151E8003F23F0010341E80034002CC4
:105F8000F5D10168143151E8003F23F0400341E8A6
:105F90000034002CF5D1202180F84210016B01293A
:105FA00009D101680C3151E8003F23F0100341E8AA
:105FB0000034002CF5D14263016B012902D0FEF7B9
:105FC000E9FD10BD818DFEF783FA10BD10B5406A62
:105FD00001214163016B012902D0FEF7EFFD10BDE5
:105FE000818D4908FEF774FA10BD10B5406A002192
:105FF000C185202280F842200163FEF7ABFA10BD74
:1060000010B50146406A09680968890616D400215E
:10601000C1840168143151E8002F22F0800241E868
:106020000023002BF5D101680C3151E8002F42F01C
:10603000400241E80023002BF5D110BDFEF74CFED5
:1060400010BD10B5406AFEF748FE10BD01680C3166
:1060500051E8002F22F4907241E80023002BF5D183
:106060000168143151E8002F22F0010241E80023B9
:10607000002BF5D1016B012909D101680C3151E8E0
:10608000002F22F0100241E80023002BF5D120213F
:1060900080F8421000210163704701680C3151E81B
:1060A000002F22F0C00241E80023002BF5D120216F
:1060B00080F84110704708B590F84210222901D0AD
:1060C000022008BD82684FF480539A4201D10169D1
:1060D00021B1816A9A421BD04AB10AE00268816A02
:1060E0005268C2F308020A80816A891C08E00269CA
:1060F00072B10268526802F07F020A70816A491C1C
:106100008162C18D491E0904090CC18503D01BE0C1
:1061100002685268F1E70168CA6822F02002CA608A
:106120000168CA6822F48072CA6001684A6922F074
:1061300001024A61202180F8421000214163026B74
:10614000012A03D0FEF726FD002008BD0163016887
:106150000C3151E8002F22F0100241E80023002BFF
:10616000F5D101680A68D20602D50A68496800912B
:10617000818DFEF7ADF9E7E770B504460068016967
:10618000E26821F44051114301612169A06808438C
:10619000616908432168CA6841F20C639A4302436B
:1061A000CA6020684169A26921F4407111434161CC
:1061B0001E492068884202D1FDF780FD01E0FDF70D
:1061C0006DFD00EBC00101EB0012606864218000EE
:1061D000B2FBF0F3B3FBF1F36FF018067343B2FBBD
:1061E000F0F5B2FBF0F605EB8305322303EB051562
:1061F000B5FBF1F5B6FBF1F605F0F00505EB06157C
:10620000B2FBF0F6B2FBF0F0B0FBF1F06FF0180269
:10621000504306EB800003EB0010B0FBF1F0216867
:1062200000F00F002844886070BD00000038014075
:1062300038B58162044682850020134660642222BC
:1062400084F84220E56B1B4AAA62E56B1A4AEA62AF
:10625000E56B1A4A2A63E26B50630A462168E06BD9
:10626000091DFDF71FF9206801684068009020694A
:1062700048B120680C3050E8001F41F4807140E8BC
:106280000012002AF5D12068143050E8001F41F0B8
:10629000010140E80012002AF5D12068143050E8CE
:1062A000001F41F0400140E80012002AF5D1002013
:1062B00038BD0000475F0008CD5F0008FD5E0008A4
:1062C00081628285C28500214164222180F84210CA
:1062D000016921B10168CA6842F48072CA6001682C
:1062E0004A6942F001024A610068C16841F0200138
:1062F000C160002070472DE9F843984617460D46C7
:106300000446089E24E0701C22D0FDF74DFBA0EB54
:106310000800B0421AD8CEB12068C168490717D525
:10632000802D15D0402D13D00168C94309070FD423
:1063300001680025406800902046FFF787FE08208E
:10634000606484F840500120BDE8F8830320FBE737
:106350002068006835EA000004D00020B842D2D09E
:106360000020F1E70120F9E70148FEF75DB90000E0
:10637000C00500200148FEF757B9000008060020BC
:106380000148FEF751B9000050060020FEE700006A
:1063900010B50B4CA078002810D000F049F8216906
:1063A000401A46F2A8116061884207D3FFF714F83B
:1063B00096210448FCF7CBFB0020A07010BD000024
:1063C0004C000020880300200907090E002804DB88
:1063D00000F1E02080F80014704700F00F0000F199
:1063E000E02080F8141D7047BFF34F8F0548016807
:1063F000054A01F4E06111430160BFF34F8F00BF14
:10640000FDE700000CED00E00400FA05BFF34F8F3C
:1064100005480168054A01F4E06111430160BFF3DA
:106420004F8F00BFFDE700000CED00E00400FA050F
:1064300005480068416A0548406A00EB4002C2EB2B
:10644000C01001EBC00070473005002004000020A0
:10645000864908B584480860FDF7EAFAFFF71AFC98
:10646000FEF7DEFF8248416941F001014161406968
:10647000002200F00100009011460D20FDF746FBC0
:106480000D20FDF736FB002203210E20FDF73EFB19
:106490000E20FDF72EFB002203210F20FDF736FB17
:1064A0000F20FDF726FB002211461020FDF72EFBE2
:1064B0001020FDF71EFBFFF73FF86F486D494FF4C2
:1064C000614600240160C0E901640C25C460C0E994
:1064D00004458461C461FEF7DDF908B172B6FEE7D8
:1064E0006548664948300160C0E90164C460C0E99C
:1064F00004458461C461FEF7CDF908B172B6FEE7C8
:106500005D485F4990300160C0E90164C460C0E942
:1065100004458461C461FEF7BDF908B172B6FEE7B7
:10652000FFF73EF8544857499C3801600621416006
:1065300040F2E1418160FDF73DFA08B172B6FEE735
:1065400062B60022504E4FF4805529463046FDF782
:1065500026FA4E4F002240213846FDF720FA00224D
:1065600080213846FDF71BFA4FF48078002241461F
:106570003846FDF714FAC820FCF7CCFF0122294663
:106580003046FDF70CFA012240213846FDF707FAA4
:10659000002280213846FDF702FA002241463846A3
:1065A000FDF7FDF9C820FCF7B5FF00224021384671
:1065B000FDF7F5F9012280213846FDF7F0F90022B8
:1065C00041463846FDF7EBF9C820FCF7A3FF00224F
:1065D00040213846FDF7E3F9002280213846FDF7D7
:1065E000DEF9012241463846FDF7D9F9C820FCF70B
:1065F00091FF21489C38FDF70CFA254801220270D2
:10660000244802702448027024480470FEF7FCFFFE
:1066100019492348FCF7C0FB17489C38FDF7F9F9E6
:106620006420FCF777FF1F480068FFF7F5FA12486F
:106630009038FDF7B1FD10484838FDF7ADFD002258
:1066400029463046FDF7ABF90B489C38FDF7E1F9D8
:10665000154C2068401C2060FCF7BCFBFFF7B0F82D
:106660000420FFF76BF9F4E70028000808ED00E0CC
:106670000010024000380140C005002000440040E6
:10668000004800400030004000080140000C01407C
:106690000B0000200C0000200D0000200E00002048
:1066A0007403002034000020640000204FF47F0CAD
:1066B0001CEAD0121EBF1CEAD11392EA0C0F93EA17
:1066C0000C0F00F0858090EA010F48BF42F4807201
:1066D00040F4000C41F400002CF07F4120F07F409A
:1066E00000B58142A2EB03020FF2081CACEB504E46
:1066F000C0F100009EF800E04FEA4E0E00FB0EFCD9
:1067000038BF49004FEA2C1C02F5FA020CFB0EF3CD
:106710004FEACE1E4FEA112C4FEAC1210EEB635E09
:1067200042EB22420EFB0CFC4FEA1C5300FB031110
:106730004FEA112C4FEA01310EFB0CFC4FEADC4C06
:1067400000FB0C11C14228BF09184CEB03335DF864
:1067500004EB10EB410143EBC250B2F57C0F38BFA4
:10676000704729D512F0F00F1CBF00F1C04000F0B7
:1067700000407047008182838485868788898B8C5E
:106780008D8E8F919293959697999A9C9D9FA0A29A
:10679000A3A5A7A8AAACAEB0B2B3B5B7B9BCBEC0EA
:1067A000C2C5C7C9CCCED1D4D7D9DCDFE2E6E9EC8B
:1067B000F0F3F7FAFE0000004FEA400C0CF1807C89
:1067C000BCF17E4F28BF7047B0F1C04000F00BB95C
:1067D00090EA010F0CEAD11348BF42F4807262457F
:1067E00038BF634507D213F47F0F16D080EA01004B
:1067F00000F00040704710B500F0AFF8097EFC3E95
:1068000000F005B880EA010000F00040704780EA1F
:10681000010000F0004000F0E6B812F47F0F04BF62
:106820000248704780EA010000F0DDB80000C07F38
:10683000B0FA80F310FA03F2C3F19D030AD0D90530
:1068400001EB1220530638BF704700F1010008BF6A
:1068500020F00100704700004FF47F0C1CEAD012BA
:106860001EBF1CEAD11392EA0C0F93EA0C0F00F042
:10687000478090EA010F48BF42F480724FF0004C0D
:106880004CEA00204CEA012102EB0302A0FB0113B9
:10689000A2F50002002918BF43F001035B0028BFE6
:1068A0004FEA330342EB22425FEA132C4CEBC25017
:1068B0002EBFBCEB436FB2F57C0F70474FEA036C01
:1068C000BCF1004F08BF20F00100B2F57C0F38BFCB
:1068D00070470BD582F0FF0212F5803FC8BF7047AA
:1068E00000F1C040D8BF00F00040704700F5000C38
:1068F0005FEA4C0C48BF7047B0F1C04000F073B87D
:1069000090EA010F0CEAD11348BF42F4807262454D
:1069100038BF634504D280EA010000F000407047B0
:1069200010B500F01AF800BF8900013E00F007B86A
:1069300000F009B85FEA410C5FEA1C6C08D080EAFD
:10694000010000F050B85FEA400C5FEA1C6CF6D121
:106950004FF00040A0F5800070470EF1020E2EF0BF
:10696000030E5EF8044B244204D44FEA4102B2F114
:106970007F4F11D84FEA4003B3F17F4F0CD80ED1AF
:106980004FEAD07CB2F17F4F0CEB4C0C0CF1020CB7
:1069900008BF4CEBD17C04E04FF0080C01E04FEA5B
:1069A000D17C0CEB4C0324FA03F404F00704B4F19B
:1069B000040C06D20EEB840CBDE810404CF0010C28
:1069C0006047DFE80CF0070802024FF00040A0F536
:1069D000800010BD0846420018BFD2F1807288BF07
:1069E00000F0004010BDFF2141EAD050C0057047C3
:1069F000010202030405060708090A0B0C0D0E0F1D
:106A0000101000000000000000000102030406074F
:106A10000809000000000102030400003C6A0008AD
:106A2000000000207800000028290008B46A00084F
:106A300078000020B00D0000442900082A00000062
:106A40000000000000000000000000000000000046
:106A50000000000000000000000000000000000036
:106A60000000000000000000000000000000000026
:106A70000000000000000000000000000000000016
:106A80000000000000000000000000000000000006
:106A900000000000000000000000000000000000F6
:106AA00000000000010000001000000000000000D5
:046AB00000127A0056
:04000005080028EDDA
:00000001FF
