:020000040800F2
:102800002809002091290008DF4F0008A14C00088A
:10281000DD4F0008752E0008BD5C000800000000B8
:10282000000000000000000000000000AB5700089E
:10283000512F000800000000E14F0008F557000884
:10284000AB290008AB290008AB290008AB29000818
:10285000AB290008AB290008AB290008AB29000808
:10286000AB290008AB290008AB290008AB290008F8
:10287000452F0008AB290008AB290008AB29000848
:10288000AB290008AB290008AB290008AB290008D8
:10289000AB290008AB290008AB290008AB290008C8
:1028A000AB29000859580008AB290008AB290008DB
:1028B00065580008AB290008AB290008AB290008BF
:1028C000AB290008AB290008AB290008AB29000898
:1028D000AB290008D55B0008AB290008E15B0008C4
:1028E000AB290008AB290008AB29000800F002F86A
:1028F00000F03FF80AA090E8000C82448344AAF15B
:102900000107DA4501D100F034F8AFF2090EBAE858
:102910000F0013F0010F18BFFB1A43F00103184713
:10292000E8390000083A0000103A24BF78C878C19E
:10293000FAD8520724BF30C830C144BF04680C60C5
:10294000704700000023002400250026103A28BF0D
:1029500078C1FBD8520728BF30C148BF0B60704711
:10296000642900F09180002070471FB51FBD10B58D
:1029700010BD00F032FA1146FFF7F7FF03F0BCF983
:1029800000F050FA03B4FFF7F2FF03BC00F058FA6E
:102990000948804709480047FEE7FEE7FEE7FEE7F3
:1029A000FEE7FEE7FEE7FEE7FEE7FEE7044805492F
:1029B000054A064B7047000057580008ED280008EC
:1029C00028030020280900202805002028050020D1
:1029D000B2F120030AD5C2F1200320FA02F001FA75
:1029E00003F321FA02F140EA0300704721FA03F0F1
:1029F0004FF00001704700000FB41CB5074B06AA4A
:102A00007B4469460090059800F09DF900206946D6
:102A100000F0ACF91CBC5DF814FB00006903000079
:102A20002DE9F0410E460446002020622046E16870
:102A3000884730B3252805D0D4E901219047206A82
:102A4000401CF2E7E168204600278847050018D0BF
:102A5000A5F14100192802D820354FF4006732460D
:102A6000294620462760FFF77BFF40B1012804D0AC
:102A7000F61D26F007060836D8E7361DD6E72846A5
:102A8000DAE7206ABDE8F0812DE9F041064600242E
:102A900010687529314616A510D0AFF300800028C4
:102AA00002DA404213A507E031688A0701D512A572
:102AB00002E0490704D511A5012401E0AFF300802D
:102AC00000210A2206F1240709E0B0FBF2FCB0FB6A
:102AD000F2F302FB1C00303078541846491C0028E1
:102AE000F3D123462A463046BDE8F04100F0CDB888
:102AF000000000002D0000002B000000200000005E
:102B000040EA010310B59B070FD1042A0DD310C86A
:102B100008C9121F9C42F8D020BA19BA884201D9BC
:102B2000012010BD4FF0FF3010BD1AB1D30703D004
:102B3000521C07E0002010BD10F8013B11F8014BBA
:102B40001B1B07D110F8013B11F8014B1B1B01D1D6
:102B5000921EF1D1184610BD032A40F2308010F0C9
:102B6000030C00F0158011F8013BBCF1020F624428
:102B700098BF11F801CB00F8013B38BF11F8013BB9
:102B8000A2F1040298BF00F801CB38BF00F8013B66
:102B900011F0030300F0EF80083AC0F0088051F80C
:102BA000043B083A51F804CBA0E80810F5E7121DE1
:102BB0005CBF51F8043B40F8043BAFF30080D20700
:102BC00024BF11F8013B11F801CB48BF11F8012BCC
:102BD00024BF00F8013B00F801CB48BF00F8012BEF
:102BE000704702F0FF0343EA032242EA024200F088
:102BF00002B84FF000020429C0F0128010F0030C5C
:102C000000F01B80CCF1040CBCF1020F18BF00F8DF
:102C1000012BA8BF20F8022BA1EB0C0100F00DB88E
:102C20005FEAC17C24BF00F8012B00F8012B48BFEC
:102C300000F8012B70474FF0000200B51346944690
:102C40009646203922BFA0E80C50A0E80C50B1F104
:102C50002001BFF4F7AF090728BFA0E80C5048BF18
:102C60000CC05DF804EB890028BF40F8042B08BFB6
:102C7000704748BF20F8022B11F0804F18BF00F8B2
:102C8000012B70477047704770472DE9F0470D469C
:102C900099469246044600F124080168880604D546
:102CA000E06921F01001216000E00120A84201DD6F
:102CB000471B00E00027A1697A1902EB0900081AF6
:102CC000A0612078C00602D42046AFF30080002621
:102CD00008E0D4E901211AF806009047206A401C58
:102CE000761C20624E45F4DB2078C0060AD52046CB
:102CF000AFF3008006E0D4E9012130209047206A3C
:102D0000401C2062381EA7F10107F4DC07E0D4E97B
:102D1000012118F805009047206A401C2062281EF7
:102D2000A5F10105F3DC2046AFF300802078000612
:102D300002D50220BDE8F0870120FBE701694A1CAB
:102D400002610878704700B58FB0CDE901310021EC
:102D5000059105497944CDE9031011466846FFF70E
:102D60005FFE0FB000BD0000E5FFFFFF0A6802F83C
:102D7000010B0A60704710B5203AC0F00B80B1E833
:102D80001850203AA0E81850B1E81850A0E81850A0
:102D9000BFF4F5AF5FEA027C24BFB1E81850A0E8A9
:102DA000185044BF18C918C0BDE810405FEA827CC3
:102DB00024BF51F8043B40F8043B08BF7047D207DA
:102DC00028BF31F8023B48BF11F8012B28BF20F87B
:102DD000023B48BF00F8012B7047754600F02CF805
:102DE000AE4605006946534620F00700854618B0F8
:102DF00020B5FFF7DBFDBDE820404FF000064FF0A7
:102E000000074FF000084FF0000B21F00701AC461F
:102E1000ACE8C009ACE8C009ACE8C009ACE8C0093E
:102E20008D46704710B50446AFF300802046BDE8DC
:102E30001040FFF7A7BD000000487047C8020020FF
:102E400001491820ABBEFEE72600020070470000D3
:102E500010B5064CE089B0F5FA6F06D34FF48051F7
:102E6000034800F09AFE0020E08110BD0C00002015
:102E700000080140FEE730B5044600200246491E26
:102E80000EE0A35C5840002345000006C0105B1C08
:102E900085EA5070DBB2C0B2082BF5D3521CD2B217
:102EA0008A42EEDB30BD00000D48018B01EB410290
:102EB000C2EBC111828AB2EBC10F05D24278FE2A61
:102EC00002D0828A521C8282828AB2EBC10F05D163
:102ED000FE224270012202EBC10181827047000094
:102EE0000C000020C00701D000207047012070476F
:102EF00010B502F07BFE104C59280AD0002004F8CF
:102F00002C0F01216070E070BDE810400B4800F00C
:102F100045BA012211020A4800F047FEFD2004F8DC
:102F20002C0F042194F82C00607003482C30FFF71C
:102F3000A2FFE07010BD00009400002000F800081F
:102F400000080140014800F097BB0000600200202B
:102F5000704700002DE9F041064601229103954893
:102F600000F023FE944C618A701E0025814271DBC3
:102F700092A19748FFF740FD954A00213032032087
:102F800002F0F4FB92488DA11030FFF735FD904A16
:102F900000212032022002F0E9FB8D4887A1203079
:102FA000FFF72AFD8A4A00211032012002F0DEFBE1
:102FB000874882A13030FFF71FFD0021844A084670
:102FC00002F0D4FB6078824A824920B1012842D0C5
:102FD000FE283BD176E00B185B781354401CC0B23E
:102FE0000F28F8D300217A4A084602F0BFFBA078E8
:102FF000FF281DD0A278764877A11030FFF7FCFC9F
:10300000734A00211032012002F0B0FB2078012821
:1030100014D075A16E482030FFF7EEFC6C4A0021F9
:103020002032022002F0A2FB607948B170A13DE09D
:10303000674873A11030FFF7DFFCE1E774A1E9E70F
:10304000634A00213032032002F090FB65716582F3
:10305000BDE8F0814CE000200B185B781354401C55
:10306000C0B20F28F8D30021594A084602F07EFB6F
:10307000A078FF2820D0A278554857A11030FFF73C
:10308000BBFC534A00211032012002F06FFB504874
:1030900062A12030FFF7B0FC4D4A0021203202200F
:1030A00002F064FB60790028CAD05FA14848303044
:1030B000FFF7A2FC6571C3E7454851A11030FFF747
:1030C0009BFCDEE75B485CA190F858204048FFF786
:1030D00093FC00213E4A084602F048FB3C4858A1B8
:1030E0001030FFF789FC3A4A002110320120ABE78B
:1030F000A0790028ACD00327B6FBF7F0618A88429C
:10310000A6D8A5712DA13248FFF776FC304A0021E0
:103110003032032002F02AFB2D4828A11030FFF79F
:103120006BFC2B4A00212032022002F01FFB2848B2
:1031300022A12030FFF760FC254A00211032012037
:1031400002F014FB22481DA13030FFF755FC00218E
:103150001F4A084602F00AFB1D483DA13030FFF728
:103160004BFC1B4A00213032032002F0FFFA1848C2
:103170003BA12030FFF740FC154A002120320220FD
:1031800002F0F4FA12483AA11030FFF735FC104A69
:1031900000211032012002F0E9FA35A10C48FFF7B6
:1031A0002BFC00210A4A084602F0E0FAB6FBF7F0D1
:1031B00060824DE7000C01400C0000202020202000
:1031C000202020202020202020202020000000007F
:1031D000F000002064000020536F206C756F6E6754
:1031E0003A202564200000004D616E67204D6F007D
:1031F0004E68616E206E757420446F6E670000002B
:10320000536F206C756F6E673A202A2A2A200000BF
:103210004D616E6720646179000000004D616E674A
:1032200020446F6E670000004E68616E206E7574FA
:10323000204D6F00940000205354543A2025640020
:103240004B686F6E67206B6574206E6F69000000BD
:10325000202020202020205C2F2020202020200043
:1032600020202020205C5C5C2F2F2F20202020009D
:103270002020202020207C7C7C7C202020202020DE
:103280000000000072B6FEE706490020C86106484B
:10329000016941F004010161016941F040010161EE
:1032A00070470000A802002000200240064A0021CA
:1032B000D16106490A6942F002020A61486108695F
:1032C00040F0400008617047A80200200020024042
:1032D000044B0022DA61044A136943F001031361CD
:1032E00001807047A80200200020024014480022FC
:1032F000C168CB06134904D5CA6942F00202CA610B
:103300001022C3685B0705D5CB6943F00103CB618D
:1033100042F00402C369DB0707D0CB6943F0040322
:10332000CB61C16921F00101C161A2F58071013950
:1033300001D0C2607047C16921F00101C1617047CD
:1033400000200240A802002070B5054600F032FCC3
:103350000646114C09E0681C07D025B100F02AFC94
:10336000801BA84201D9032070BDE068C007F2D1DC
:10337000E068800601D52020E060E068C00605D442
:10338000E069C00702D1E068400703D5FFF7AEFF50
:10339000012070BD002070BD0020024030B585B016
:1033A0000D46044600F0F0FA01A9012081E8310041
:1033B0000020009004A9684600F048FA00F09AFA4C
:1033C00005B030BD2DE9F041174C607A174E00254D
:1033D00090B1012217033946304600F0E6FB608BBE
:1033E000401C80B26083142806D300223946304640
:1033F00000F0DBFB65836572A07A002812D0012201
:10340000D7023946304600F0D0FBA08B401C80B27A
:10341000A083022806D300223946304600F0C5FBBF
:10342000A583A572BDE8F0810C00002000080140D2
:1034300010B50023521C05E030F813405B1C21F846
:10344000024BDBB2B3EB520FF6D310BD0B22FFF7EA
:10345000EFBF1422FFF7ECBF2DE9F04116460746F7
:103460000D4600F091FA0024761C09E02A8807EB4B
:1034700044010023012000F047FA641CE4B2AD1CB3
:10348000B4EB560FF2D3BDE8F04100F033BA1FB5EC
:103490000B2201A9FFF7E0FF1FBD0FB4142210B5E6
:1034A00003A9FFF7D9FF10BC5DF814FB10B5082184
:1034B000224800F06DFBA8B1002321480122002121
:1034C000C372047B84B1012C18D0022C09D1428C28
:1034D00040F6B833521C92B242849A4201D301732F
:1034E000418410BD0123E8E733B1C38B5B1C9BB261
:1034F000C383322BF5D10273C18310BDDBB9038CBA
:103500005B1C9BB20384642BF7D143783BB14378B7
:10351000012B04D0C1714378F02B03D003E0C271BA
:10352000427100E00272828C521C8284C28A143A78
:10353000428202220273018410BD0000000C01408F
:103540000C00002010B54FF40041114800F020FBA2
:10355000A8B100220F480271C178B9B1002192B11F
:10356000038A0122A3F53064B83C06D0038A5B1CB1
:103570000382038A052B04D007E0027005E00122D4
:10358000E8E7827101E001820170C170007810BD2E
:10359000000801400C00002010B590F82110002216
:1035A000022905D00421816380F82020012010BD6C
:1035B00001680B6823F00E030B6001680B6823F0B1
:1035C00001030B6090F84030C46B012101FA03F352
:1035D000636080F8211080F82020104610BD0000A4
:1035E00010B590F821100024022903D00421816332
:1035F00001243DE001680A6822F00E020A600168B9
:103600000A6822F001020A601A4A0168914201D157
:10361000012121E0174A1432914201D110211BE00F
:10362000144A2832914201D1891515E0114A3C32E1
:10363000914201D189140FE00E4A5032914202D1D9
:103640004FF4803108E00B4A6432914202D14FF4CA
:10365000801101E04FF08071064A083A5160012163
:1036600080F82110002180F82010416B01B18847BB
:10367000204610BD080002402DE9F05FC16B0C68C8
:1036800001680B68D0F840C0042202FA0CF2494DE0
:10369000DFF824A1494E4A4FDFF828B1DFF828E1CE
:1036A00022422CD05A072AD50A68920603D40A6807
:1036B00022F004020A600168A94201D1042219E043
:1036C000514501D1402215E0B14202D14FF4806250
:1036D00010E0B94202D14FF480420BE0594502D1CB
:1036E0004FF4802206E0714502D14FF4800201E0E0
:1036F0004FF080622F4908394A60C16A3BE04FF0C1
:10370000020808FA0CF818EA040F4FF000094FF00D
:10371000010235D05FEA837832D50B689B0605D469
:103720000B6823F00A030B6080F821200168A9428E
:1037300001D1022219E0514501D1202215E0B14208
:1037400002D14FF4007210E0B94202D14FF400529E
:103750000BE0594502D14FF4003206E0714502D129
:103760004FF4001201E04FF00072124908394A602C
:1037700080F82090816A00291AD0BDE8F05F0847E0
:10378000082505FA0CF5254212D01B0710D50B6849
:1037900023F00E030B6090F84010C36B02FA01F1A6
:1037A0005960826380F8212080F82090016BE2E765
:1037B000BDE8F09F080002401C00024030000240BB
:1037C00044000240580002406C00024030B528B36B
:1037D00008C8134914221944B1FBF2F18900C163EE
:1037E00010498163022141771A6843F6F0718A43D8
:1037F000D0E900142143D0E902452C432143046958
:103800002143446921438469214311431960002104
:103810004163012242770177084630BD012030BD67
:10382000F8FFFDBF0000024070B5044600F0C2F989
:103830000546601C02D004480078044400F0BAF940
:10384000401BA042FAD370BD400000202DE9F04794
:10385000054626480F460126017E01290FD0012189
:10386000814601762868DFF888804CF250340228BF
:1038700008D0A2462046FFF767FDA8B131E002203C
:10388000BDE8F0872046FFF75FFD08BB0120FFF78A
:10389000FBFC2046FFF758FDD8F81010064621F033
:1038A0000401C8F810101CE04FF0FF303860AC681D
:1038B00011E02046FFF7FAFC5046FFF745FDD8F827
:1038C0001010060021F00201C8F8101001D03C6071
:1038D00007E004F58064D5E9020100EB8120A042F5
:1038E000E7D8002189F818103046C9E7A80200205F
:1038F000002002400348016941F08001016100207D
:1039000070470000002002402DE9F05F07461C4888
:1039100088460024017E15461E46012909D0012152
:10392000814601764CF2503A5046FFF70DFD18B132
:1039300022E00220BDE8F09F012F02D0022F00D02C
:103940000427D346DFF83CA0220128463146FFF782
:103950003FF881B208EB4400FFF7BAFC5846FFF786
:10396000F3FCDAF8102022F00102CAF8102018B98E
:10397000641CE4B2BC42E7D3002289F81820D9E7DE
:10398000A802002000200240064900200A69120611
:1039900007D5054A4A60054A4A600969090600D503
:1039A000012070470020024023016745AB89EFCD1D
:1039B0002DE9F84FDFF8B8910024A9F1040B234654
:1039C0000F2709F1040AABF1040EC9E00125A54057
:1039D0002A40AA427DD1674ED1F804C0ACEB06085C
:1039E000B44532D014DCBCF1030F3AD009DCBCF191
:1039F000000F2AD0BCF1010F1CD0BCF1020F31D155
:103A00001DE0BCF1110F17D0BCF1120F2AD119E043
:103A1000B8F5881F19D006DCB8F5803F15D0B8F589
:103A2000801F1FD111E0B8F5001F0ED0B8F5041F9C
:103A300018D10AE0CB6815E0CB681B1D12E0CB68FB
:103A400008330FE0CB680C330CE08B682BB1012BF3
:103A50004FF0080303D0456104E0042302E0056150
:103A600000E00023FF2A01D8064601E000F1040629
:103A70004FEA840501D9A5F12005D6F8008007FAA0
:103A800005FC28EA0C0803FA05F548EA0508C6F81B
:103A900000804D68ED0062D5374DAE6946F00106F5
:103AA000AE61AD6924F0030605F001050095334DC4
:103AB00006EB050CDCF80850A607360F07FA06F8E7
:103AC00025EA0805DFF8B880404503D14FF000082B
:103AD00017E044E0DFF8AC80404502D14FF0010828
:103AE0000FE0DFF8A480404502D14FF0020808E063
:103AF000DFF89880404502D14FF0030801E04FF015
:103B0000040808FA06F848EA0508CCF808804D6869
:103B1000D9F80060ED024D4601D5164300E096430A
:103B20002E604D68DAF80060AD02554601D51643A7
:103B300000E096432E604D68DBF80060AD035D4603
:103B400001D5164300E096432E604D68DEF8006014
:103B5000ED03754601D5164300E096432E60641CC4
:103B60000D682A46E5407FF431AFBDE8F88F0000CC
:103B70000804014000001110001002400000014044
:103B800000080140000C01400010014000140140F9
:103B90008068084000D001207047C26821EA020313
:103BA0000A4043EA0241016170470AB1016170476E
:103BB0000904FBE7014880687047000040000020CE
:103BC00002488168027811448160704740000020FB
:103BD000074810B5016841F010010160032000F0B2
:103BE00075F80F2000F006F800F024F8002010BD52
:103BF0000020024070B50D4D04464FF47A712878CC
:103C0000B1FBF0F00A490968B1FBF0F000F0DCFA12
:103C100048B9102C07D200222146501E00F036F879
:103C200000206C6070BD012070BD000040000020CD
:103C30004C0000200C4808B5816941F00101816108
:103C4000816901F001010091C16941F08051C161B8
:103C5000C06900F0805000900448416821F0E061A4
:103C600041F00071416008BD0010024000000140B9
:103C7000002809DB00F01F0201219140400980006B
:103C800000F1E020C0F8001170470000F0B40E4BC6
:103C90001B680C46C3F30223C3F10705042D00D9AA
:103CA0000425191D072901D2002300E0DB1E01268F
:103CB00006FA05F1491E214099409E40761E1640A5
:103CC0003143F0BC01F0FBBF0CED00E0064900F011
:103CD000070208684FF6FF03184040EA0220034A33
:103CE00010430860704700000CED00E00000FA058A
:103CF0002DE9F0470F46050061D0434E306800F0D3
:103D00000700B84209D2306820F00700384330601D
:103D1000306800F00700B84251D128683B4C810759
:103D200012D5400703D5606840F4E06060602878F1
:103D3000000703D5606840F4605060606068A9685F
:103D400020F0F000084360602878C00728D0686839
:103D5000012810D02168022810D0890700292EDA06
:103D6000616821F0030101436160FFF723FF804692
:103D700041F288390DE021688903EFE78901EDE719
:103D8000FFF718FFA0EB0801494502D90320BDE861
:103D9000F0876068696800F00C00B0EB810FEFD12C
:103DA000306800F00700B8420BD9306820F00700F7
:103DB00038433060306800F00700B84201D001207D
:103DC000E5E72878400705D56068E96820F4E060F9
:103DD000084360602878000706D56068296920F4E8
:103DE000605040EAC100606000F038F86168084A3D
:103DF000C1F30311515CC8400649086006480068D9
:103E0000FFF7F8FE0020C2E7002002400010024049
:103E1000EE6200084C0000204400002004480549E0
:103E200000684968044AC1F30221515CC8407047E8
:103E30004C00002000100240FE62000804480549C2
:103E400000684968044AC1F3C221515CC840704708
:103E50004C00002000100240FE6200080E4A51682B
:103E60000E4801F00C03042B11D0082B0FD10C4885
:103E7000C1F38343C903C05C0AD55168084AC1F342
:103E80004041921E515C054A5043B0FBF1F070472F
:103E900004494843704700000010024000127A00B5
:103EA000DE62000800093D002DE9F84F040070D0E3
:103EB0002078C04DC00749D06868C0F38100012850
:103EC00007D06868C0F38100022809D16868C00380
:103ED00006D52868800339D560680028E7D035E02A
:103EE0006068B0F5803F0BD010B1B0F5A02F11D0B5
:103EF000286820F480302860286820F4802002E0C0
:103F0000286840F480302860606890B1FFF752FE66
:103F100006460AE0286840F480202860F0E700BFE9
:103F2000FFF748FE801B642873D828688003F7D504
:103F30000CE0FFF73FFE064605E000BFFFF73AFE44
:103F4000801B6428F0D828688003F7D420789A4E24
:103F500080074FF001094FF0000839D5686810F06C
:103F60000C0F07D06868C0F38100022809D1686887
:103F7000C00306D42868800714D52069012808D119
:103F800010E02069B0B1C6F80090FFF713FE0746B5
:103F900005E00AE1FFF70EFEC01B0228C4D828681E
:103FA0008007F7D52868616920F0F80040EAC10071
:103FB00028600DE0C6F80080FFF7FCFD074604E02E
:103FC000FFF7F8FDC01B022823D828688007F7D424
:103FD000207800072CD57948A169D9B1C0F80090A4
:103FE000FFF7E8FD074604E0FFF7E4FDC01B0228E9
:103FF0000FD8686A8007F7D571484FF4FA51006806
:10400000B0FBF1F0009000BF0098411E0091FAD281
:104010000EE080E0C0F80080FFF7CCFD074604E02A
:10402000FFF7C8FDC01B022875D8686A8007F7D45F
:104030002078400760D5E8690027C00008D4E86907
:1040400040F08050E861E869012700F0805000905E
:104050005C480168C90513D40168834641F4807146
:104060000160FFF7A7FD824606E000BFFFF7A2FD53
:10407000A0EB0A0064284ED8DBF80000C005F5D597
:10408000E06801280AD008B1052813D0286A20F07A
:1040900001002862286A20F0040002E0286A40F04B
:1040A00001002862E06841F2883B98B1FFF782FD89
:1040B00082460BE0286A40F004002862EEE700BF69
:1040C000FFF778FDA0EB0A0159455AD8286A800706
:1040D000F6D50CE0FFF76EFD824605E0FFF76AFDBE
:1040E000A0EB0A0159454CD8286A8007F6D41FB1C5
:1040F000E86920F08050E861E06988B36968C1F33D
:104100008101022944D00228C6F8608004D0FFF75C
:1041100051FD044638E034E0FFF74CFD074604E06B
:10412000FFF748FDC01B02282BD828688001F7D470
:10413000206AB0F5803F05D16868A16820F400309E
:1041400008436860D4E908010843696821F47411E0
:1041500008436860C6F86090FFF72CFD044606E04F
:1041600025E000BFFFF726FD001B022809D82868BC
:104170008001F7D51BE000BFFFF71CFD001B0228E4
:1041800002D90320BDE8F88F28688001F4D40EE03E
:104190000128F7D06868226A00F48031914204D186
:1041A000616A00F47010884201D00120EAE7002023
:1041B000E8E7000000100240000042428004424252
:1041C0004C0000200070004010B5401EB0F1807F10
:1041D00001D3012010BD4FF0E02460610F21601772
:1041E00001F06DFD0020A06107202061002010BDBE
:1041F0007047704770B590F83C20012A26D0012402
:1042000080F83C40022280F83D2003685A689D688F
:1042100022F070060A6832435A600D4B02689A42D7
:1042200008D0B2F1804F05D00A4B9A4202D00A4B17
:104230009A4204D1496825F080031943916080F8BF
:104240003D40002180F83C10084670BD022070BD42
:10425000002C0140000400400008004010B504009C
:1042600003D094F83D0010B107E0012010BD0020FC
:1042700084F83C00204600F01FF8022084F83D003E
:10428000211D206801F0F4FA012084F8460084F82A
:104290003E0084F83F0084F8400084F8410084F830
:1042A000420084F8430084F8440084F8450084F810
:1042B0003D00002010BD000008B5154A01681548F2
:1042C00091420ED1816941F40061816180690022CF
:1042D00000F40060009011461920FFF7D7FC192068
:1042E00010E0B1F1804F11D1C16941F00101C1610C
:1042F000C069002200F00100009011461C20FFF769
:10430000C5FC1C20BDE80840FFF7B2BC08BD00009A
:10431000002C01400010024090F83D10012901D00E
:1043200001207047022180F83D100168CA6842F000
:104330000102CA6000680B49884208D0B0F1804F82
:1043400005D00949884202D00849884204D18168D1
:1043500001F00701062903D0016841F00101016065
:1043600000207047002C014000040040000800407D
:104370000168CA6822F00102CA6001680A6A41F253
:1043800011131A4207D10A6A9B101A4203D10A6814
:1043900022F001020A60012180F83D1000207047E0
:1043A00070B5044690F83C000025012817D001267E
:1043B00084F83C60022084F83D002068826822F086
:1043C000770222F47F4282600868502838D00DDCE2
:1043D00020284FD005DC90B3102811D14AE00220EC
:1043E00070BD302846D040280AD13BE060282FD04D
:1043F00070280DD0B0F5805F03D0B0F5005F12D00B
:10440000012584F83D60002084F83C00284670BDFA
:10441000CB68D1E90121206801F066FA2068816843
:1044200041F0770109E0CB68D1E90121206801F072
:104430005BFA2068816841F480418160E1E719E01E
:10444000CA684968206801F061FA5021206806E0D6
:10445000CA684968206801F06AFA6021206801F0A2
:104460004DFACEE7CA684968206801F04FFA40214A
:104470002068F4E7226801461046F0E770472DE90E
:10448000F04104460068C66805694FF00007A907B7
:1044900013D5B10711D5F91E0161012020772068DD
:1044A00080698007204602D0FFF7E8FF04E000F0B3
:1044B0007EF8204600F07CF82777680716D570074D
:1044C00014D521686FF0040008610220207720686D
:1044D000806910F4407F204602D0FFF7CFFF04E050
:1044E00000F065F8204600F063F82777280715D517
:1044F000300713D521686FF0080008610420207789
:104500002068C0698007204602D0FFF7B7FF04E0AB
:1045100000F04DF8204600F04BF82777E80616D556
:10452000F00614D521686FF010000861082020778C
:104530002068C06910F4407F204602D0FFF79EFF3C
:1045400004E000F034F8204600F032F82777E8075E
:1045500008D0F00706D021686FF0010008612046FE
:1045600000F028F8280608D5300606D521686FF037
:10457000800008612046FFF73BFE680608D57006FC
:1045800006D521686FF040000861204600F034F83D
:10459000A8060AD5B00608D521686FF0200008618A
:1045A0002046BDE8F041FFF724BEBDE8F08170472A
:1045B0007047000010B50E4900680968884216D19E
:1045C0000C48816A491C8162C16A491CC162C18967
:1045D000491CC181418A491C41820121C170FEF7F9
:1045E000F1FEFEF761FCBDE81040FEF75FBF10BDB5
:1045F000880100200C0000207047704770470000C1
:10460000F8B5016804460868CA684B6910F00F0FD6
:104610004FF0000559D003F0010602F490773743BC
:1046200065D0C10705D0D10503D5616C41F001010A
:104630006164410705D5D90703D0616C41F00201DF
:104640006164810705D5D90703D0616C41F004018D
:104650006164010707D502F02001314303D0616C8A
:1046600041F008016164616C00293AD0800604D5EC
:10467000900602D5204601F09BF920684069616CE4
:10468000C0F38010090700D460B3204601F069F937
:1046900020684069400621D52068143050E8001F8A
:1046A00021F0400140E80012002AF5D1E06BA8B1EA
:1046B0006D494163E06BFEF793FF002811D0E06B7A
:1046C000416B01B0BDE8F040084783060FD5930663
:1046D0000DD52046BDE8F84001F06AB92046FFF745
:1046E0008DFFF8BD2046FFF789FF6564F8BD266B96
:1046F0002023012E7CD1C6067AD5D60678D5086847
:104700004868009048694FF00206400640D5E16BCA
:10471000086840680004000CE8D0A28D8242E5D908
:10472000E085886920282DD020680C3050E8001FD3
:1047300021F4807140E80012002AF5D1206814307D
:1047400050E8001F21F0010140E80012002AF5D1D5
:104750002068143050E8001F21F0400140E80012AA
:10476000002AF5D184F84230256320680C3050E8E7
:10477000001F21F0100140E80012002AF5D1E06B83
:10478000FEF70AFF6663A08DE18D401A81B22AE030
:10479000A08DE18D401A81B2E08D0028A6D00029BD
:1047A000A4D022680C3252E8000F20F4907042E846
:1047B0000007002FF5D12068143050E8002F22F0B8
:1047C000010240E80027002FF5D184F8423025632C
:1047D00020680C3050E8002F22F0100240E800233F
:1047E000002BF5D166632046FFF707FFF8BDFFE712
:1047F00005062BD5150629D594F841002128F5D1B9
:10480000A068B0F5805F01D12069B0B1206A411C79
:104810002162216800784860E08C401E0004000C92
:10482000E084E3D12068C16821F08001C160206884
:10483000C16841F04001C160D8E7206A0088C0F338
:1048400008004860206A801C2062E5E74006CDD55C
:104850005006CBD5CA68204622F04002CA6084F8D0
:10486000413000F02BF9C1E75359000870B504003E
:1048700004D094F84100002510B106E0012070BD7D
:1048800084F84050204600F023F8242084F84100AA
:104890002068C16821F40051C160204601F0EAF8A7
:1048A0002068016921F4904101612068416921F08B
:1048B0002A0141612068C16841F40051C16065640A
:1048C000202084F8410084F842006563002070BD18
:1048D000F0B585B000240094019402940394064638
:1048E0000368374F0220374903224502BB4226D1D5
:1048F0008B6943F480438B618B6903F48043049399
:104900008B6943F004038B6189692F4E01F0040128
:1049100004910102CDE90010039269463046FFF789
:1049200047F8CDE90054694630460294FFF740F855
:10493000002211462520FFF7A9F925203CE0234F4E
:10494000BB423BD1CB6943F48023CB61CB6903F4F9
:10495000802304938B6943F008038B61896901F01C
:104960000801CDE90321CDE90050194D69462846DB
:10497000FFF71EF8E814CDE90004694628460294C2
:10498000FFF716F8144D134828601020C5E90104FC
:104990008020C5E903046C61AC612846EC61FEF738
:1049A00015FF08B1FEF76EFCB56300221146272003
:1049B0006E62FFF76BF92720FFF75AF905B0F0BDDB
:1049C000003801400010024000080140004800404B
:1049D000000C01401C0002406002002090F84230B0
:1049E000202B01D00220704721B11AB100230363AC
:1049F00001F09CB80120704710B500680549884255
:104A000007D1054800F02EFCBDE81040024800F038
:104A1000EDBC10BD00380140940000202DE9F843A2
:104A2000044690F84100984616460D46202802D0CC
:104A30000220BDE8F88385B17EB1002060642120AA
:104A400084F84100FFF7B6F8A6848146E684A068A2
:104A50002027B0F5805F02D003E00120E9E720695C
:104A600010B12E4600250EE000260CE080212046E5
:104A700001F077F8A8B9C6B116F8010B21684860B3
:104A8000E08C401EE084E08C4B464FF00002CDF8F5
:104A900000800028EAD14FF04001204601F061F883
:104AA00040B184F841700320C3E735F8020BC0F32E
:104AB0000800E3E784F841700020BAE7704700007F
:104AC0002DE9F043044690F842008DB000287DD0D7
:104AD00000206B4A84F84200012111706949088066
:104AE000A079694F694DDFF8A8814FF480764FF0C7
:104AF000FF39A02849D1012231463846FFF755F841
:104B000029464046FEF7A2FC94F858008DF80000B4
:104B10000F208DF80100A0208DF8020022208DF8D2
:104B200003005C4800788DF80400A8788DF8050033
:104B3000E8788DF80600A8888DF80800010A8DF83D
:104B40000710D5F806008DF80C00010E8DF809103D
:104B5000010C8DF80A10010A8DF80B10A87A8DF857
:104B60000D000F216846FEF786F98DF80E004B46C2
:104B70000F2269462068FFF751FF00223146384670
:104B8000FFF713F8204600F011FCA079A12873D19B
:104B9000012231463846FFF708F83C494646404670
:104BA000FEF754FC28680490686805902889ADF8E1
:104BB0001800A87A8DF81A001120287001213046BB
:104BC000FEF7ECFB296801916A6800E054E002926C
:104BD0002889ADF80C00A87A8DF80E003046039BAA
:104BE000FEF755FC0120FEF71FFE09A93046FEF72F
:104BF0002DFC0B2209A92548FDF782FFC8B34E25DD
:104C000001213046FEF7CAFBC820401E10F0FF000D
:104C1000FBD104AF304697E80E00FEF738FC00BF2A
:104C200094F858008DF81C0005218DF81D10A12066
:104C30008DF81E008DF81F5007A8FEF71CF98DF89F
:104C400020004B46052207A92068FFF7E7FEC82091
:104C5000401E10F0FF00FBD1BFF34F8F0E480168DC
:104C60000E4A01F4E06111430160BFF34F8F00BFB2
:104C7000FDE7FFE75925D3E70DB0BDE8F08300005D
:104C800016000020200000200008014087000020BE
:104C900000FC0008090000200CED00E00400FA050B
:104CA000FEE710B504462A20207002460F21601C42
:104CB000FDF797FF4FF47A7020821E20A074012028
:104CC000E07410BD70B588B04448FFF7EAFF43496F
:104CD000434E14313046FEF7BCFB404C414D14347A
:104CE00020782A286DD001213046FEF757FB32206C
:104CF000FEF79AFD39481422C168009100690190BD
:104D0000364902A8FDF728FF0DF1080C30469CE853
:104D10000E00FEF7C2FB0A20FEF786FD2146304654
:104D2000FEF797FB002001462954401CC0B2102812
:104D3000FAD30020211849782954401CC0B20F280A
:104D4000F8D3294D002210212846FEF72EFF01221C
:104D500010212846FEF729FF6420FEF765FD00229A
:104D600010212846FEF721FF4FF4FA763046FEF771
:104D70005BFD012210212846FEF717FF6420FEF795
:104D800053FD002210212846FEF70FFF3046FEF7A4
:104D90004BFD012210212846FEF707FF6420FEF795
:104DA00043FD002210212846FEF7FFFE3046FEF7A5
:104DB0003BFD0E49208A08800D49A07C088008B080
:104DC00070BD10210748FDF714FF00202118497815
:104DD0002954401CC0B20F28F8D3EAE75000002045
:104DE00000F8000830010020000C014022000020E3
:104DF000240000202DE9F04186B000243F480094B3
:104E0000019402940394816941F0200181618169D8
:104E100001F020010491816941F0040181618169FF
:104E200001F004010491816941F008018161806908
:104E3000DFF8CC8000F00800049000224FF210014F
:104E40004046FEF7B2FE2F4F00224FF4C8513846BD
:104E5000FEF7ABFEF82001258DE8310069463846A3
:104E6000FEF7A6FD07208DE8310069464046FEF7B3
:104E70009FFD4BF210000226CDE90005CDE9024668
:104E800069464046FEF794FDA803CDE90005CDE94B
:104E9000025669464046FEF78BFD2802CDE9000523
:104EA0000320CDE9024069463846FEF781FDE8025D
:104EB000CDE9000569463846CDE90245FEF778FDA3
:104EC0002803CDE90005CDE9024669463846FEF7DC
:104ED0006FFDE803CDE90004694638460294FEF709
:104EE00067FD4FF40270CDE9000469464046029424
:104EF000FEF75EFD06B0BDE8F08100000010024044
:104F0000000C01400008014010B586B0002418488C
:104F1000009401940294039404941449059401604C
:104F20004721C0E901144FF6FF71C0E90314802145
:104F3000C0E90541FFF792F908B172B6FEE74FF4F8
:104F40008050009069460A48FFF72AFA08B172B605
:104F5000FEE7049404A906480594FFF74BF90028DE
:104F600001D072B6FEE706B010BD0000002C014073
:104F70004001002010B586B0002417480094019429
:104F80000294039404944FF08041059401604721FA
:104F9000C0E9011440F2E731C0E9031480218161C6
:104FA000FFF75CF908B172B6FEE74FF4805000904D
:104FB00069460948FFF7F4F908B172B6FEE70494B0
:104FC00004A905480594FFF715F9002801D072B629
:104FD000FEE706B010BD000088010020FEE7FEE7F6
:104FE0007047000070B54E4C60784E4E02283ED09F
:104FF00003DC90B1012835D11CE00025F02802D057
:10500000FE282FD11EE06582A571207A50B3E08A78
:10501000323860826570A58224E0FEF793FA20782A
:1050200001280DD1A06A4FF49671B0FBF1F0FDF7A5
:1050300059FF28B1012210213046FEF7B6FD11E0DC
:105040000022F8E7002210213046FEF7AEFD208B4B
:1050500000EB4001C1EBC010A18AB1EBC00F01D23F
:1050600065826570BDE870402F48FFF729BD0122B9
:1050700010213046FEF799FD012211022B48FEF760
:1050800094FD2B48FFF774F92A48FFF771F9FDF7F3
:105090002FFF254824494FF0FF33006805222C31AB
:1050A000FFF7BCFC002210213046FEF77EFD3220C7
:1050B000FEF7BAFB012210213046FEF776FD3220C2
:1050C000FEF7B2FB002210213046FEF76EFD3220C3
:1050D000FEF7AAFB012210213046FEF766FD3220C2
:1050E000FEF7A2FB002210213046FEF75EFD3220C3
:1050F000FEF79AFB012210213046FEF756FD3220C2
:10510000FEF792FBBFF34F8F0B4801680B4A01F487
:10511000E06111430160BFF34F8F00BFFDE7000066
:105120000C000020000C0140940000200008014009
:1051300040010020880100200CED00E00400FA0589
:1051400070B50446002044F8401B142104F81809E7
:1051500060766077A0772077E0776062A06244F89D
:105160002C0F04F8110C24F80C0CA4F15000543C42
:10517000FDF761FD142104F11800FDF75CFD142119
:1051800004F12C00FDF757FD344D20212846FEF791
:10519000FFFCE0B35FF0000094F8581041EA4010C3
:1051A00084F8580040212846FEF7F2FC80B3002026
:1051B00094F8581041EA001084F8580080212846DD
:1051C000FEF7E6FC28B3002094F85810244E41EA7C
:1051D000C00084F8580001213046FEF7D9FC90B396
:1051E0005FF0000094F8581041EA800084F85800FD
:1051F00002213046FEF7CCFC60B3002094F8581032
:1052000041EA400084F858000421304602E018E0EA
:105210001AE01BE0FEF7BCFCF0B1002094F8581037
:105220000122084384F8580004F145012068FFF783
:10523000D5FB2846BDE8704000224FF48071FEF790
:10524000B4BC0120A8E703E00120B1E70120BBE7DF
:105250000120C7E70120D1E70120DFE70008014076
:10526000000C01402DE9F0410446002590F844006F
:10527000012630B101281BD002283AD003280ED1D4
:105280000EE094F8450094F85810884202D120713D
:1052900084F84460EF287ED1032084F844007AE04B
:1052A00094F84500AE2810D13F49002008600CE07A
:1052B00094F84520022002F01F010523012911D096
:1052C00081B1022905D004290CD0204600F06EF8E7
:1052D00061E084F8440084F84600142084F8590002
:1052E000627158E084F8440084F8460084F859302C
:1052F000F6E794F84620201D94F84510115494F8D0
:10530000591094F846004A1E904239D1E06C401C76
:10531000E064201DFDF7AFFD84F84700217967792F
:1053200004F1030CCA19A1790A44D3B294F85920A4
:1053300012F80CC0844519D1A01C105C984215D1FC
:1053400007F01F00012805D020B1022805D004284D
:1053500008D00BE084F840600EE0A52906D184F85F
:10536000416009E0A02905D0A12903D0206D401C8F
:1053700020650BE084F84260606D401C60650AE0C7
:10538000401CC0B284F84600904204DD012520464E
:1053900000F00CF805E0012204F145012068FFF758
:1053A0001DFB2846BDE8F0813400002010B5002127
:1053B00080F8401080F8451080F8461080F84110C1
:1053C00080F8421080F84410036800F14501012282
:1053D0001846FFF703FBBDE8104000224FF4807130
:1053E0000148FEF7E2BB0000000801402DE9F05F34
:1053F000044690F8400001252C4F2D4E01283ED147
:10540000DFF8B0B04FF4807A012251465846FEF7DB
:10541000CCFB3D7028494FF00008A1F800802748D8
:105420000570607900F01F0030702549A079087080
:10543000FE20207623480078DFF88C90402299F8EF
:10544000001002EA811141EAC01094F8581001F0EE
:105450003F0108431D4960760878401E0870A07619
:10546000042104F11800FDF706FDE07689F80080BC
:1054700084F84350012251465846FEF796FB94F8B3
:10548000410001280ED13D70114900202218D27927
:105490000A54401CC0B20F28F8D30E49A07D0870F2
:1054A000022030700120BDE8F09F000016000020AF
:1054B0000D00002000080140200000201400002002
:1054C0000E0000200C00002013000020010000202E
:1054D00078000020000000202DE9F041044690F8FB
:1054E0004300002823D00122124F0025160284F821
:1054F000435031463846FEF758FB04F118016B1E45
:10550000042288462068FFF789FAC8F8005088F816
:105510000450B4F848000022401CA4F8480031466A
:105520003846FEF742FB2046FFF740FF0120BDE86A
:10553000F08100000008014070B51848807801280B
:1055400007D0012000F0D2F8BDE870400220FEF73D
:105550006BB9002401E0202C05D244F0800000F05B
:10556000C5F8802007E0A4F12000C0B240F0800020
:1055700000F0BCF8882000F0B9F80025002000F009
:10558000D5F8002000F0D2F86D1CEDB2082DF5D34F
:10559000641CE4B2402CDED370BD00000200002089
:1055A0002DE9F0410646002401E0202C18D2002508
:1055B00044F08008404600F099F845F0800000F083
:1055C00095F8680000EB0417F05D00F0AFF8B8192B
:1055D000407800F0ABF86D1CEDB2082DEAD31BE06B
:1055E000A4F12000002540F0800800BF08F0FF0073
:1055F00000F07CF845F0880000F078F8680000EBD7
:105600000417F05D00F092F8B819407800F08EF8B9
:105610006D1CEDB2082DE9D3641CE4B2402CC4D358
:10562000BDE8F08110B50F4C012807D0002804D147
:10563000302000F05BF80020A07010BD302000F09A
:1056400055F80120FEF7F0F8342000F04FF8012063
:10565000FEF7EAF8362000F049F80120FEF7E4F8FA
:105660000120E9E70200002070B51F4D4FF480448F
:10567000002221462846FEF798FA0A20FEF7D4F8C1
:10568000012221462846FEF790FA3220FEF7CCF898
:10569000302000F02BF86E2000F022FB302000F0CC
:1056A00025F8282000F01CFB082000F01FF86E20D1
:1056B00000F016FB012000F019F80C20FEF7B4F8FA
:1056C000062000F013F80120FEF7AEF80C2000F0E1
:1056D0000DF80120FEF7A8F8022000F007F8BDE859
:1056E00070400120FEF7A0B8000C014070B5012207
:1056F0000D4E0446150329463046FEF756FAF820AB
:1057000000F054F804F0F00000F050F82007000E0C
:1057100000F04CF8322000F0E3FA29463046BDE8AC
:1057200070400022FEF741BA000C014070B5012222
:105730000D4E0446150329463046FEF736FAFA2088
:1057400000F034F804F0F00000F030F82007000E0C
:1057500000F02CF8322000F0C3FA29463046BDE8AC
:1057600070400022FEF721BA000C014010B514462B
:1057700041F0800370B1012804D0022805D003282D
:1057800008D105E041F0900304E041F0880301E016
:1057900041F09803D8B2FFF7A9FF02E0641CFFF7BD
:1057A000C5FF20780028F9D110BD70472DE9F041E0
:1057B0000F4F002405464FF400487E1405FA04F00C
:1057C000000601D5012200E0002241463846FEF7DE
:1057D000ECF9002231463846FEF7E7F9012231465E
:1057E0003846FEF7E2F9641C082CE7DBBDE8F081DF
:1057F000000C0140FEF7E4B930B58FB028216846AF
:10580000FDF719FA14210AA8FDF715FA0121080479
:10581000CDE900100024029402250491CDE907503F
:105820004FF4E01009906846FEF73EFB08B172B6EF
:10583000FEE70F20CDE90A054FF48060CDE90C406A
:1058400002210AA80E94FEF753FA002801D072B67E
:10585000FEE70FB030BD70470148FEF710BE0000F4
:10586000400100200148FEF70ABE00008801002028
:10587000F0B50268194B1A4C1A4D4FF08047984208
:1058800005D0B84203D0A04201D0A84203D122F0F3
:1058900070064A683243984205D0B84203D0A0420D
:1058A00001D0A84203D122F44074CA6822434C6953
:1058B00022F08002224302608A68C2620A68826221
:1058C000984201D109690163012141610169C90758
:1058D00003D0016921F001010161F0BD002C0140FC
:1058E000000400400008004010B5846842EA03222A
:1058F00024F47F440A432243826010BD826822F070
:1059000070020A4342F007018160704710B5036AD4
:10591000046A24F001040462846924F0F00444EA77
:10592000021423F00A020A438461026210BD10B51A
:10593000036A046A24F010040462846923F0A0035B
:1059400024F4704444EA023243EA011182610162A4
:1059500010BD10B5406A0021C185C184FEF74EFE1E
:1059600010BD01680C3151E8002F22F4907241E81B
:105970000023002BF5D10168143151E8002F22F0EB
:10598000010241E80023002BF5D1016B012909D167
:1059900001680C3151E8002F22F0100241E8002389
:1059A000002BF5D1202180F84210002101637047BF
:1059B00008B590F84210222901D0022008BD826863
:1059C0004FF480539A4201D1016921B1816A9A4210
:1059D0001BD04AB10AE00268816A5268C2F3080229
:1059E0000A80816A891C08E0026972B10268526803
:1059F00002F07F020A70816A491C8162C18D491ED2
:105A00000904090CC18503D01BE002685268F1E764
:105A10000168CA6822F02002CA600168CA6822F4DC
:105A20008072CA6001684A6922F001024A6120213D
:105A300080F8421000214163026B012A03D0FEF777
:105A4000DBFF002008BD016301680C3151E8002F25
:105A500022F0100241E80023002BF5D101680A680A
:105A6000D20602D50A6849680091818DFEF7C5FD0E
:105A7000E7E7000070B5044600680169E26821F4B8
:105A80004051114301612169A068084361690843DD
:105A90002168CA6841F20C639A430243CA602068D5
:105AA0004169A26921F44071114341611E49206896
:105AB000884202D1FEF7C2F901E0FEF7AFF900EB30
:105AC000C00101EB0012606864218000B2FBF0F3BA
:105AD000B3FBF1F36FF018067343B2FBF0F5B2FBC2
:105AE000F0F605EB8305322303EB0515B5FBF1F565
:105AF000B6FBF1F605F0F00505EB0615B2FBF0F686
:105B0000B2FBF0F0B0FBF1F06FF01802504306EB7F
:105B1000800003EB0010B0FBF1F0216800F00F00F3
:105B20002844886070BD0000003801408162828591
:105B3000C28500214164222180F84210016921B10F
:105B40000168CA6842F48072CA6001684A6942F01A
:105B500001024A610068C16841F02001C160002073
:105B600070472DE9F843984617460D460446089EAF
:105B700024E0701C22D0FEF71DF8A0EB0800B04214
:105B80001AD8CEB12068C168490717D5802D15D025
:105B9000402D13D00168C94309070FD401680025BF
:105BA000406800902046FFF7DCFE0820606484F81F
:105BB00040500120BDE8F8830320FBE7206800681F
:105BC00035EA000004D00020B842D2D00020F1E72E
:105BD0000120F9E70148FEF713BD0000D0010020C5
:105BE0000148FEF70DBD00001802002070B5304ED0
:105BF00088B04E2501213046FDF7D0FB0A20FDF785
:105C000013FE2C482C4C007881070BD000F00302C7
:105C10004FF4FA71012A09D0022A05D0C243920733
:105C200004D004E0322101E04FF47A71218210F0B7
:105C30000C0F08D0C0F38100012806D0022806D03E
:105C4000032806D007E00F2004E01E2002E02D20EC
:105C500000E03C20A07418490F221431601CFCF7AE
:105C60007BFF154814221438016A0091406A0190A4
:105C7000114902A8FCF770FF0DF1080C30469CE8B2
:105C80000E00FDF70AFC0120FDF7CEFD0A49304663
:105C9000FDF7DFFB0120FDF7C7FD07490F22143197
:105CA000601CFCF72DFF00B9592508B0284670BDCF
:105CB00000F800080000002064000020FEE709074B
:105CC000090E002804DB00F1E02080F80014704782
:105CD00000F00F0000F1E02080F8141D7047000074
:105CE000044900220B685A6209684A6A8242FCD35E
:105CF000704700004001002008B55B495948086022
:105D0000FDF766FFFFF778FDFFF774F85748416924
:105D100041F0010141614069002200F00100009062
:105D200011460C20FDF7B2FF0C20FDF7A1FFFFF795
:105D3000EBF850484E49002401604FF46141C0E93E
:105D400001140C25C460C0E904458461C461FEF7F8
:105D50008DFD08B172B6FEE74648474948300160FC
:105D60004FF4E131C0E90114C460C0E90445846125
:105D7000C461FEF77BFD08B172B6FEE7FFF7FAF8E3
:105D800062B601223D4D140321462846FDF70DFF62
:105D90003B4E002210213046FDF707FF35493948B8
:105DA000FFF7CEF933489038FEF7B6FAFFF75CFC00
:105DB0000120FFF737FC3448FFF7F2FB4FF47A700D
:105DC000FDF732FD0020FFF72DFC0120FDF72CFD33
:105DD000FFF7B2FBFEF776FF2CA13048FCF70CFE74
:105DE00000212E4A0846FFF7C1FC2DA12F48FCF7E1
:105DF00003FE2E4A00210120FFF7B8FC21482CA108
:105E000090F858202E48FCF7F7FD2D4A002102207B
:105E1000FFF7ACFC2BA12E48FCF7EEFD2C4A00212D
:105E20000320FFF7A3FC13484838FEF775FA002259
:105E300021462846FDF7B9FE012291033046FDF7C1
:105E4000B4FE244C244D2068401C2060FFF7CAF8A3
:105E50000C48FFF741FB2888FDF77CF8FCF7F8FFBA
:105E6000F1E700000028000808ED00E00010024003
:105E700000380140D00100200048004000080140E7
:105E8000000C014094000020DC5E00085454204BBC
:105E9000484149205448414320310000F00000208F
:105EA00054422042616F204D616E67000001002066
:105EB000536F205468752054753A20256400000003
:105EC0001001002056657273696F6E20332E370003
:105ED000200100203C00002022000020FFFFFFFFE7
:105EE000FFFFFFFFFFFFFFFFFFFFFFFFFFFFFFFFC2
:105EF000FFFFFFFFFFFFFFFFFFFFFFFFFFFFFFFFB2
:105F0000FFFFFFFFFFFFFFFFFFFFFFFFFFFFFFFFA1
:105F1000FFFFFFFFFFFFFFFFFFFFFFFFFFFFFFFF91
:105F2000FFFFFFFFFFFFFFFFFFFFFFFFFFFFFFFF81
:105F3000FFFFFFFFFFFFFFFFFFFFFFFFFFFFFFC3AD
:105F4000FFFFFFFFFFFFFFFFFFFFFFFFFFFFFFC39D
:105F5000FFFFFFE3FFC7FFFFFFF87FFFFFFFFFC368
:105F6000FFFFFFE1FF87FFFFFFF87FFFFFFFFFDF7E
:105F7000FFFFFFE1FF87FFFFFFF87FFFFFFFFFFF4E
:105F8000FFFFFFE1FF87FFFFFFF87FFFFFFFFFFF3E
:105F9000FFFFFFC1FF83FFFFFFF87FFFE1FFF0C3BB
:105FA000FC003F0000000FC003F87FFFE1FFF0C3DB
:105FB000F0000F0000001F0000F87FFFF0FFE1C3BA
:105FC000E07C07C1FF83FE07C0787FFFF0FFE1C3DD
:105FD000C1FF07E1FF87FC1FF0787FFFF0FFC3C31D
:105FE000C3FF87E1FF87FC3FF8787FFFF87FC3C3DB
:105FF000C3FF83E1FF87FC3FF8387FFFF87F87C34B
:10600000C3FF83E1FF87FC3FF8387FFFFC3F87C376
:10601000C3FF83E1FF87FC3FF8387FFFFC3F8FC35E
:10602000C20003E1FF87F82000787FFFFE3F0FC327
:10603000C00007E1FF87FC0000787FFFFE1F0FC351
:10604000C3FFFFE1FF87FC3FFFF87FFFFF1E1FC379
:10605000C3FFFFE1FF87FC3FFFF87FFFFF0E1FC379
:10606000C3FFFFE1FF87FC3FFFF87FFFFF0E3FC349
:10607000C3FFFFE1FF83FC3FFFF87FFFFF843FC3C7
:10608000C3FFFFE1FFC3FC3FFFF83FFFFF807FC37B
:10609000C1FFFFE0FFC1FC1FFFFC1FFFFFC07FC36C
:1060A000E00007F007C00E00007C01FFFFC0FFC347
:1060B000F00007F807E00F00007E01FFFFE0FFC3DC
:1060C000FC0007FE0FF81FC0007F81FFFFFFFFFFEE
:1060D000FFFFFFFFFFFFFFFFFFFFFFFFFFFFFFFFD0
:1060E000FFFFFFFFFFFFFFFFFFFFFFFFFFFFFFFFC0
:1060F000FFFFFFFFFFFFFFFFFFFFFFFFFFFFFFFFB0
:10610000FFFFFFFFFFFFFFFFFFFFFFFFFFFFFFFF9F
:10611000FFFFFFFFFFFFFFFFFFFFFFFFFFFFFFFF8F
:10612000FFFFFFFFFFFFFFFFFFFFFFFFFFFFFFFF7F
:10613000FFFFFFFFFFFFFFFFFFFFFFFFFFFFFFFF6F
:10614000FFFFFFFFFFFFFFFFFFFFFFFFFFFFFFFF5F
:10615000FFFFFFFFFFFFFFFFFFFFFFFFFFFFFFFF4F
:10616000FFFFFFFFFFFFFFFFFFFFFFFFFFFFFFFF3F
:10617000FFFFFFFFFFFFFFFFFFFFFFFFFFFFFFFF2F
:10618000FFFFFFFFFFFFFFFFFFFFFFFFFFFFFFFF1F
:10619000FFFFFFFFFFFFFFFFFFFFF7FFFFFFFFFF17
:1061A000FFFFFFFFFFFFFFFFFFFFF7FFFFFFFFFF07
:1061B000FFFFFFFFFFFFFFFFFFFFF7FFFFFFFFFFF7
:1061C000FFFFFFFFFFFFFE07C1E060FFFFFFFFFFD4
:1061D000FFFFFFFFFFFFFC631CCFE3FFFFFFFFFF9D
:1061E000FFFFFFFFFFFFFCFB3E4FF7FFFFFFFFFF3F
:1061F000FFFFFFFFFFFFFCF97E4FF7FFFFFFFFFFF1
:10620000FFFFFFFFFFFFFCF97E60F7FFFFFFFFFFCF
:10621000FFFFFFFFFFFFFCF97E7C37FFFFFFFFFF63
:10622000FFFFFFFFFFFFFCFB7E7F37FFFFFFFFFF4E
:10623000FFFFFFFFFFFFFCF33C7F33FFFFFFFFFF8C
:10624000FFFFFFFFFFFFFC0780C030FFFFFFFFFFE6
:10625000FFFFFFFFFFFFFCFFFFFFFFFFFFFFFFFF51
:10626000FFFFFFFFFFFFFCFFFFFFFFFFFFFFFFFF41
:10627000FFFFFFFFFFFFFCFFFFFFFFFFFFFFFFFF31
:10628000FFFFFFFFFFFFFFFFFFFFFFFFFFFFFFFF1E
:10629000FFFFFFFFFFFFFFFFFFFFFFFFFFFFFFFF0E
:1062A000FFFFFFFFFFFFFFFFFFFFFFFFFFFFFFFFFE
:1062B000FFFFFFFFFFFFFFFFFFFFFFFFFFFFFFFFEE
:1062C000FFFFFFFFFFFFFFFFFFFFFFFFFFFFFFFFDE
:1062D000FFFFFFFFFFFFFFFFFFFFFFFF01020203C2
:1062E0000405060708090A0B0C0D0E0F101000001C
:1062F0000000000000000102030406070809000076
:1063000000000102030400002863000800000020D0
:106310005000000028290008786300085000002081
:10632000D80800004429000800FF40800000000059
:106330000025000000F00000000000000000000048
:10634000000000000000000000000000000000004D
:10635000000000000000000000000000000000003D
:10636000000000000000000001000000100000001C
:086370000000000000127A0099
:04000005080028EDDA
:00000001FF
